{
  "contractName": "AddressTracker",
  "abi": [
    {
      "inputs": [],
      "stateMutability": "nonpayable",
      "type": "constructor"
    },
    {
      "inputs": [
        {
          "internalType": "address",
          "name": "_govtAddress",
          "type": "address"
        }
      ],
      "name": "setGovtAddress",
      "outputs": [],
      "stateMutability": "nonpayable",
      "type": "function"
    },
    {
      "inputs": [],
      "name": "getGovtAddress",
      "outputs": [
        {
          "internalType": "address",
          "name": "",
          "type": "address"
        }
      ],
      "stateMutability": "view",
      "type": "function",
      "constant": true
    },
    {
      "inputs": [
        {
          "internalType": "address",
          "name": "person",
          "type": "address"
        }
      ],
      "name": "getBalance",
      "outputs": [
        {
          "internalType": "uint256",
          "name": "",
          "type": "uint256"
        }
      ],
      "stateMutability": "view",
      "type": "function",
      "constant": true
    },
    {
      "inputs": [
        {
          "internalType": "address",
          "name": "_authority",
          "type": "address"
        }
      ],
      "name": "issueAuthorisation",
      "outputs": [],
      "stateMutability": "nonpayable",
      "type": "function"
    },
    {
      "inputs": [],
      "name": "getAuthority",
      "outputs": [
        {
          "internalType": "address[]",
          "name": "",
          "type": "address[]"
        }
      ],
      "stateMutability": "view",
      "type": "function",
      "constant": true
    },
    {
      "inputs": [
        {
          "internalType": "bytes32",
          "name": "locationHash",
          "type": "bytes32"
        }
      ],
      "name": "mintToken",
      "outputs": [],
      "stateMutability": "nonpayable",
      "type": "function"
    },
    {
      "inputs": [
        {
          "internalType": "bytes32",
          "name": "locationHash",
          "type": "bytes32"
        },
        {
          "internalType": "bytes32",
          "name": "completeHash",
          "type": "bytes32"
        },
        {
          "internalType": "address",
          "name": "owner",
          "type": "address"
        }
      ],
      "name": "allot",
      "outputs": [],
      "stateMutability": "nonpayable",
      "type": "function"
    },
    {
      "inputs": [
        {
          "internalType": "bytes32",
          "name": "locationHash",
          "type": "bytes32"
        },
        {
          "internalType": "bytes32",
          "name": "oldHash",
          "type": "bytes32"
        },
        {
          "internalType": "bytes32",
          "name": "newHash",
          "type": "bytes32"
        },
        {
          "internalType": "address",
          "name": "oldOwner",
          "type": "address"
        }
      ],
      "name": "transfer",
      "outputs": [],
      "stateMutability": "nonpayable",
      "type": "function"
    }
  ],
  "bytecode": "0x608060405234801561001057600080fd5b506000600760146101000a81548160ff0219169083151502179055506133f68061003b6000396000f3fe60806040523480156200001157600080fd5b5060043610620000945760003560e01c8063bdbef0ab1162000063578063bdbef0ab14620001a2578063e2b178a014620001e9578063f8b2cb4f146200024c578063fbd0dce514620002a75762000094565b80633089ad711462000099578063790d575014620000f4578063825532a9146200013b578063a521ad7c1462000171575b600080fd5b620000f260048036036060811015620000b157600080fd5b810190808035906020019092919080359060200190929190803573ffffffffffffffffffffffffffffffffffffffff1690602001909291905050506200030c565b005b62000139600480360360208110156200010c57600080fd5b81019080803573ffffffffffffffffffffffffffffffffffffffff16906020019092919050505062000b6c565b005b6200014562000d38565b604051808273ffffffffffffffffffffffffffffffffffffffff16815260200191505060405180910390f35b620001a0600480360360208110156200018957600080fd5b810190808035906020019092919050505062000d62565b005b620001e760048036036020811015620001ba57600080fd5b81019080803573ffffffffffffffffffffffffffffffffffffffff16906020019092919050505062001164565b005b620001f3620012ca565b6040518080602001828103825283818151815260200191508051906020019060200280838360005b83811015620002385780820151818401526020810190506200021b565b505050509050019250505060405180910390f35b62000291600480360360208110156200026457600080fd5b81019080803573ffffffffffffffffffffffffffffffffffffffff1690602001909291905050506200135a565b6040518082815260200191505060405180910390f35b6200030a60048036036080811015620002bf57600080fd5b81019080803590602001909291908035906020019092919080359060200190929190803573ffffffffffffffffffffffffffffffffffffffff16906020019092919050505062001483565b005b600115156003600085815260200190815260200160002060009054906101000a900460ff161515146200038b576040517f08c379a00000000000000000000000000000000000000000000000000000000081526004018080602001828103825260268152602001806200335b6026913960400191505060405180910390fd5b60011515600560003373ffffffffffffffffffffffffffffffffffffffff1673ffffffffffffffffffffffffffffffffffffffff16815260200190815260200160002060009054906101000a900460ff1615151462000436576040517f08c379a0000000000000000000000000000000000000000000000000000000008152600401808060200182810382526040815260200180620033816040913960400191505060405180910390fd5b600080600085815260200190815260200160002060009054906101000a900473ffffffffffffffffffffffffffffffffffffffff1690506001151560056000600160008573ffffffffffffffffffffffffffffffffffffffff1673ffffffffffffffffffffffffffffffffffffffff16815260200190815260200160002060009054906101000a900473ffffffffffffffffffffffffffffffffffffffff1673ffffffffffffffffffffffffffffffffffffffff1673ffffffffffffffffffffffffffffffffffffffff16815260200190815260200160002060009054906101000a900460ff1615151462000593576040517f08c379a00000000000000000000000000000000000000000000000000000000081526004018080602001828103825260158152602001807f546f6b656e20616c6c6f74656420616c7265616479000000000000000000000081525060200191505060405180910390fd5b82600260008373ffffffffffffffffffffffffffffffffffffffff1673ffffffffffffffffffffffffffffffffffffffff1681526020019081526020016000208190555081600160008373ffffffffffffffffffffffffffffffffffffffff1673ffffffffffffffffffffffffffffffffffffffff16815260200190815260200160002060006101000a81548173ffffffffffffffffffffffffffffffffffffffff021916908373ffffffffffffffffffffffffffffffffffffffff1602179055508073ffffffffffffffffffffffffffffffffffffffff16633428fda4338460016040518463ffffffff1660e01b8152600401808473ffffffffffffffffffffffffffffffffffffffff1681526020018373ffffffffffffffffffffffffffffffffffffffff1681526020018281526020019350505050602060405180830381600087803b158015620006e657600080fd5b505af1158015620006fb573d6000803e3d6000fd5b505050506040513d60208110156200071257600080fd5b81019080805190602001909291905050505060008060008092505b6006805490508310156200092d57600091505b60046000600685815481106200075257fe5b9060005260206000200160009054906101000a900473ffffffffffffffffffffffffffffffffffffffff1673ffffffffffffffffffffffffffffffffffffffff1673ffffffffffffffffffffffffffffffffffffffff168152602001908152602001600020805490508210156200090f5783604051602001808273ffffffffffffffffffffffffffffffffffffffff1660601b81526014019150506040516020818303038152906040528051906020012060046000600686815481106200081557fe5b9060005260206000200160009054906101000a900473ffffffffffffffffffffffffffffffffffffffff1673ffffffffffffffffffffffffffffffffffffffff1673ffffffffffffffffffffffffffffffffffffffff16815260200190815260200160002083815481106200088657fe5b9060005260206000200160009054906101000a900473ffffffffffffffffffffffffffffffffffffffff16604051602001808273ffffffffffffffffffffffffffffffffffffffff1660601b81526014019150506040516020818303038152906040528051906020012014156200090157600190506200090f565b818060010192505062000740565b60018114156200091f576200092d565b82806001019350506200072d565b600460008673ffffffffffffffffffffffffffffffffffffffff1673ffffffffffffffffffffffffffffffffffffffff168152602001908152602001600020849080600181540180825580915050600190039060005260206000200160009091909190916101000a81548173ffffffffffffffffffffffffffffffffffffffff021916908373ffffffffffffffffffffffffffffffffffffffff16021790555062000ad6826004600060068781548110620009e457fe5b9060005260206000200160009054906101000a900473ffffffffffffffffffffffffffffffffffffffff1673ffffffffffffffffffffffffffffffffffffffff1673ffffffffffffffffffffffffffffffffffffffff16815260200190815260200160002080548060200260200160405190810160405280929190818152602001828054801562000acb57602002820191906000526020600020905b8160009054906101000a900473ffffffffffffffffffffffffffffffffffffffff1673ffffffffffffffffffffffffffffffffffffffff168152602001906001019080831162000a80575b505050505062001aab565b600460006006868154811062000ae857fe5b9060005260206000200160009054906101000a900473ffffffffffffffffffffffffffffffffffffffff1673ffffffffffffffffffffffffffffffffffffffff1673ffffffffffffffffffffffffffffffffffffffff168152602001908152602001600020908051906020019062000b6292919062001b6a565b5050505050505050565b60001515600760149054906101000a900460ff1615151462000bda576040517f08c379a0000000000000000000000000000000000000000000000000000000008152600401808060200182810382526028815260200180620032e46028913960400191505060405180910390fd5b80600760006101000a81548173ffffffffffffffffffffffffffffffffffffffff021916908373ffffffffffffffffffffffffffffffffffffffff1602179055506001600760146101000a81548160ff021916908315150217905550600160056000600760009054906101000a900473ffffffffffffffffffffffffffffffffffffffff1673ffffffffffffffffffffffffffffffffffffffff1673ffffffffffffffffffffffffffffffffffffffff16815260200190815260200160002060006101000a81548160ff0219169083151502179055506006600760009054906101000a900473ffffffffffffffffffffffffffffffffffffffff169080600181540180825580915050600190039060005260206000200160009091909190916101000a81548173ffffffffffffffffffffffffffffffffffffffff021916908373ffffffffffffffffffffffffffffffffffffffff16021790555050565b6000600760009054906101000a900473ffffffffffffffffffffffffffffffffffffffff16905090565b600015156003600083815260200190815260200160002060009054906101000a900460ff1615151462000de1576040517f08c379a00000000000000000000000000000000000000000000000000000000081526004018080602001828103825260258152602001806200330c6025913960400191505060405180910390fd5b60011515600560003373ffffffffffffffffffffffffffffffffffffffff1673ffffffffffffffffffffffffffffffffffffffff16815260200190815260200160002060009054906101000a900460ff1615151462000e8c576040517f08c379a0000000000000000000000000000000000000000000000000000000008152600401808060200182810382526040815260200180620033816040913960400191505060405180910390fd5b60008160405162000e9d9062001bf9565b808060200180602001848152602001838103835260018152602001807f7800000000000000000000000000000000000000000000000000000000000000815250602001838103825260018152602001807f78000000000000000000000000000000000000000000000000000000000000008152506020019350505050604051809103906000f08015801562000f36573d6000803e3d6000fd5b5090508073ffffffffffffffffffffffffffffffffffffffff16631e7ef09f3360016040518363ffffffff1660e01b8152600401808373ffffffffffffffffffffffffffffffffffffffff16815260200182815260200192505050600060405180830381600087803b15801562000fac57600080fd5b505af115801562000fc1573d6000803e3d6000fd5b505050508060008084815260200190815260200160002060006101000a81548173ffffffffffffffffffffffffffffffffffffffff021916908373ffffffffffffffffffffffffffffffffffffffff16021790555060016003600084815260200190815260200160002060006101000a81548160ff02191690831515021790555033600160008373ffffffffffffffffffffffffffffffffffffffff1673ffffffffffffffffffffffffffffffffffffffff16815260200190815260200160002060006101000a81548173ffffffffffffffffffffffffffffffffffffffff021916908373ffffffffffffffffffffffffffffffffffffffff160217905550600460003373ffffffffffffffffffffffffffffffffffffffff1673ffffffffffffffffffffffffffffffffffffffff168152602001908152602001600020819080600181540180825580915050600190039060005260206000200160009091909190916101000a81548173ffffffffffffffffffffffffffffffffffffffff021916908373ffffffffffffffffffffffffffffffffffffffff1602179055505050565b600760009054906101000a900473ffffffffffffffffffffffffffffffffffffffff1673ffffffffffffffffffffffffffffffffffffffff163373ffffffffffffffffffffffffffffffffffffffff16146200120c576040517f08c379a000000000000000000000000000000000000000000000000000000000815260040180806020018281038252602a81526020018062003331602a913960400191505060405180910390fd5b6001600560008373ffffffffffffffffffffffffffffffffffffffff1673ffffffffffffffffffffffffffffffffffffffff16815260200190815260200160002060006101000a81548160ff0219169083151502179055506006819080600181540180825580915050600190039060005260206000200160009091909190916101000a81548173ffffffffffffffffffffffffffffffffffffffff021916908373ffffffffffffffffffffffffffffffffffffffff16021790555050565b606060068054806020026020016040519081016040528092919081815260200182805480156200135057602002820191906000526020600020905b8160009054906101000a900473ffffffffffffffffffffffffffffffffffffffff1673ffffffffffffffffffffffffffffffffffffffff168152602001906001019080831162001305575b5050505050905090565b600080600460008473ffffffffffffffffffffffffffffffffffffffff1673ffffffffffffffffffffffffffffffffffffffff168152602001908152602001600020600081548110620013a957fe5b9060005260206000200160009054906101000a900473ffffffffffffffffffffffffffffffffffffffff1690508073ffffffffffffffffffffffffffffffffffffffff166370a08231846040518263ffffffff1660e01b8152600401808273ffffffffffffffffffffffffffffffffffffffff16815260200191505060206040518083038186803b1580156200143e57600080fd5b505afa15801562001453573d6000803e3d6000fd5b505050506040513d60208110156200146a57600080fd5b8101908080519060200190929190505050915050919050565b600115156003600086815260200190815260200160002060009054906101000a900460ff1615151462001502576040517f08c379a00000000000000000000000000000000000000000000000000000000081526004018080602001828103825260268152602001806200335b6026913960400191505060405180910390fd5b600080600086815260200190815260200160002060009054906101000a900473ffffffffffffffffffffffffffffffffffffffff16905083600260008373ffffffffffffffffffffffffffffffffffffffff1673ffffffffffffffffffffffffffffffffffffffff1681526020019081526020016000205414620015ee576040517f08c379a00000000000000000000000000000000000000000000000000000000081526004018080602001828103825260108152602001807f696e76616c6964207472616e736665720000000000000000000000000000000081525060200191505060405180910390fd5b82600260008373ffffffffffffffffffffffffffffffffffffffff1673ffffffffffffffffffffffffffffffffffffffff1681526020019081526020016000208190555033600160008373ffffffffffffffffffffffffffffffffffffffff1673ffffffffffffffffffffffffffffffffffffffff16815260200190815260200160002060006101000a81548173ffffffffffffffffffffffffffffffffffffffff021916908373ffffffffffffffffffffffffffffffffffffffff1602179055508073ffffffffffffffffffffffffffffffffffffffff16633428fda4833360016040518463ffffffff1660e01b8152600401808473ffffffffffffffffffffffffffffffffffffffff1681526020018373ffffffffffffffffffffffffffffffffffffffff1681526020018281526020019350505050602060405180830381600087803b1580156200174157600080fd5b505af115801562001756573d6000803e3d6000fd5b505050506040513d60208110156200176d57600080fd5b81019080805190602001909291905050505060005b600460008473ffffffffffffffffffffffffffffffffffffffff1673ffffffffffffffffffffffffffffffffffffffff16815260200190815260200160002080549050811015620018dd5781604051602001808273ffffffffffffffffffffffffffffffffffffffff1660601b815260140191505060405160208183030381529060405280519060200120600460008573ffffffffffffffffffffffffffffffffffffffff1673ffffffffffffffffffffffffffffffffffffffff16815260200190815260200160002082815481106200185857fe5b9060005260206000200160009054906101000a900473ffffffffffffffffffffffffffffffffffffffff16604051602001808273ffffffffffffffffffffffffffffffffffffffff1660601b8152601401915050604051602081830303815290604052805190602001201415620018cf57620018dd565b808060010191505062001782565b600460003373ffffffffffffffffffffffffffffffffffffffff1673ffffffffffffffffffffffffffffffffffffffff168152602001908152602001600020829080600181540180825580915050600190039060005260206000200160009091909190916101000a81548173ffffffffffffffffffffffffffffffffffffffff021916908373ffffffffffffffffffffffffffffffffffffffff16021790555062001a4e81600460008673ffffffffffffffffffffffffffffffffffffffff1673ffffffffffffffffffffffffffffffffffffffff16815260200190815260200160002080548060200260200160405190810160405280929190818152602001828054801562001a4357602002820191906000526020600020905b8160009054906101000a900473ffffffffffffffffffffffffffffffffffffffff1673ffffffffffffffffffffffffffffffffffffffff1681526020019060010190808311620019f8575b505050505062001aab565b600460008573ffffffffffffffffffffffffffffffffffffffff1673ffffffffffffffffffffffffffffffffffffffff168152602001908152602001600020908051906020019062001aa292919062001b6a565b50505050505050565b606060008390505b600183510381101562001b2d5782600182018151811062001ad057fe5b602002602001015183828151811062001ae557fe5b602002602001019073ffffffffffffffffffffffffffffffffffffffff16908173ffffffffffffffffffffffffffffffffffffffff1681525050808060010191505062001ab3565b508160018351038151811062001b3f57fe5b60200260200101600073ffffffffffffffffffffffffffffffffffffffff1681525081905092915050565b82805482825590600052602060002090810192821562001be6579160200282015b8281111562001be55782518260006101000a81548173ffffffffffffffffffffffffffffffffffffffff021916908373ffffffffffffffffffffffffffffffffffffffff1602179055509160200191906001019062001b8b565b5b50905062001bf5919062001c07565b5090565b61169f8062001c4583390190565b5b8082111562001c4057600081816101000a81549073ffffffffffffffffffffffffffffffffffffffff02191690555060010162001c08565b509056fe60806040523480156200001157600080fd5b506040516200169f3803806200169f833981810160405260608110156200003757600080fd5b81019080805160405193929190846401000000008211156200005857600080fd5b838201915060208201858111156200006f57600080fd5b82518660018202830111640100000000821117156200008d57600080fd5b8083526020830192505050908051906020019080838360005b83811015620000c3578082015181840152602081019050620000a6565b50505050905090810190601f168015620000f15780820380516001836020036101000a031916815260200191505b50604052602001805160405193929190846401000000008211156200011557600080fd5b838201915060208201858111156200012c57600080fd5b82518660018202830111640100000000821117156200014a57600080fd5b8083526020830192505050908051906020019080838360005b838110156200018057808201518184015260208101905062000163565b50505050905090810190601f168015620001ae5780820380516001836020036101000a031916815260200191505b50604052602001805190602001909291905050508260039080519060200190620001da92919062000220565b508160049080519060200190620001f392919062000220565b506012600560006101000a81548160ff021916908360ff16021790555080600681905550505050620002c6565b828054600181600116156101000203166002900490600052602060002090601f016020900481019282601f106200026357805160ff191683800117855562000294565b8280016001018555821562000294579182015b828111156200029357825182559160200191906001019062000276565b5b509050620002a39190620002a7565b5090565b5b80821115620002c2576000816000905550600101620002a8565b5090565b6113c980620002d66000396000f3fe608060405234801561001057600080fd5b50600436106100cf5760003560e01c80633428fda41161008c57806395d89b411161006657806395d89b411461040c578063a457c2d71461048f578063a9059cbb146104f3578063dd62ed3e14610557576100cf565b80633428fda4146102cc578063395093511461035057806370a08231146103b4576100cf565b806306fdde03146100d4578063095ea7b31461015757806318160ddd146101bb5780631e7ef09f146101d957806323b872dd14610227578063313ce567146102ab575b600080fd5b6100dc6105cf565b6040518080602001828103825283818151815260200191508051906020019080838360005b8381101561011c578082015181840152602081019050610101565b50505050905090810190601f1680156101495780820380516001836020036101000a031916815260200191505b509250505060405180910390f35b6101a36004803603604081101561016d57600080fd5b81019080803573ffffffffffffffffffffffffffffffffffffffff16906020019092919080359060200190929190505050610671565b60405180821515815260200191505060405180910390f35b6101c361068f565b6040518082815260200191505060405180910390f35b610225600480360360408110156101ef57600080fd5b81019080803573ffffffffffffffffffffffffffffffffffffffff16906020019092919080359060200190929190505050610699565b005b6102936004803603606081101561023d57600080fd5b81019080803573ffffffffffffffffffffffffffffffffffffffff169060200190929190803573ffffffffffffffffffffffffffffffffffffffff169060200190929190803590602001909291905050506106a7565b60405180821515815260200191505060405180910390f35b6102b3610780565b604051808260ff16815260200191505060405180910390f35b610338600480360360608110156102e257600080fd5b81019080803573ffffffffffffffffffffffffffffffffffffffff169060200190929190803573ffffffffffffffffffffffffffffffffffffffff16906020019092919080359060200190929190505050610797565b60405180821515815260200191505060405180910390f35b61039c6004803603604081101561036657600080fd5b81019080803573ffffffffffffffffffffffffffffffffffffffff169060200190929190803590602001909291905050506107af565b60405180821515815260200191505060405180910390f35b6103f6600480360360208110156103ca57600080fd5b81019080803573ffffffffffffffffffffffffffffffffffffffff169060200190929190505050610862565b6040518082815260200191505060405180910390f35b6104146108aa565b6040518080602001828103825283818151815260200191508051906020019080838360005b83811015610454578082015181840152602081019050610439565b50505050905090810190601f1680156104815780820380516001836020036101000a031916815260200191505b509250505060405180910390f35b6104db600480360360408110156104a557600080fd5b81019080803573ffffffffffffffffffffffffffffffffffffffff1690602001909291908035906020019092919050505061094c565b60405180821515815260200191505060405180910390f35b61053f6004803603604081101561050957600080fd5b81019080803573ffffffffffffffffffffffffffffffffffffffff16906020019092919080359060200190929190505050610a19565b60405180821515815260200191505060405180910390f35b6105b96004803603604081101561056d57600080fd5b81019080803573ffffffffffffffffffffffffffffffffffffffff169060200190929190803573ffffffffffffffffffffffffffffffffffffffff169060200190929190505050610a37565b6040518082815260200191505060405180910390f35b606060038054600181600116156101000203166002900480601f0160208091040260200160405190810160405280929190818152602001828054600181600116156101000203166002900480156106675780601f1061063c57610100808354040283529160200191610667565b820191906000526020600020905b81548152906001019060200180831161064a57829003601f168201915b5050505050905090565b600061068561067e610abe565b8484610ac6565b6001905092915050565b6000600254905090565b6106a38282610cbd565b5050565b60006106b4848484610e84565b610775846106c0610abe565b610770856040518060600160405280602881526020016112fe60289139600160008b73ffffffffffffffffffffffffffffffffffffffff1673ffffffffffffffffffffffffffffffffffffffff1681526020019081526020016000206000610726610abe565b73ffffffffffffffffffffffffffffffffffffffff1673ffffffffffffffffffffffffffffffffffffffff168152602001908152602001600020546111459092919063ffffffff16565b610ac6565b600190509392505050565b6000600560009054906101000a900460ff16905090565b60006107a4848484610e84565b600190509392505050565b60006108586107bc610abe565b8461085385600160006107cd610abe565b73ffffffffffffffffffffffffffffffffffffffff1673ffffffffffffffffffffffffffffffffffffffff16815260200190815260200160002060008973ffffffffffffffffffffffffffffffffffffffff1673ffffffffffffffffffffffffffffffffffffffff1681526020019081526020016000205461120590919063ffffffff16565b610ac6565b6001905092915050565b60008060008373ffffffffffffffffffffffffffffffffffffffff1673ffffffffffffffffffffffffffffffffffffffff168152602001908152602001600020549050919050565b606060048054600181600116156101000203166002900480601f0160208091040260200160405190810160405280929190818152602001828054600181600116156101000203166002900480156109425780601f1061091757610100808354040283529160200191610942565b820191906000526020600020905b81548152906001019060200180831161092557829003601f168201915b5050505050905090565b6000610a0f610959610abe565b84610a0a8560405180606001604052806025815260200161136f6025913960016000610983610abe565b73ffffffffffffffffffffffffffffffffffffffff1673ffffffffffffffffffffffffffffffffffffffff16815260200190815260200160002060008a73ffffffffffffffffffffffffffffffffffffffff1673ffffffffffffffffffffffffffffffffffffffff168152602001908152602001600020546111459092919063ffffffff16565b610ac6565b6001905092915050565b6000610a2d610a26610abe565b8484610e84565b6001905092915050565b6000600160008473ffffffffffffffffffffffffffffffffffffffff1673ffffffffffffffffffffffffffffffffffffffff16815260200190815260200160002060008373ffffffffffffffffffffffffffffffffffffffff1673ffffffffffffffffffffffffffffffffffffffff16815260200190815260200160002054905092915050565b600033905090565b600073ffffffffffffffffffffffffffffffffffffffff168373ffffffffffffffffffffffffffffffffffffffff161415610b4c576040517f08c379a000000000000000000000000000000000000000000000000000000000815260040180806020018281038252602481526020018061134b6024913960400191505060405180910390fd5b600073ffffffffffffffffffffffffffffffffffffffff168273ffffffffffffffffffffffffffffffffffffffff161415610bd2576040517f08c379a00000000000000000000000000000000000000000000000000000000081526004018080602001828103825260228152602001806112b66022913960400191505060405180910390fd5b80600160008573ffffffffffffffffffffffffffffffffffffffff1673ffffffffffffffffffffffffffffffffffffffff16815260200190815260200160002060008473ffffffffffffffffffffffffffffffffffffffff1673ffffffffffffffffffffffffffffffffffffffff168152602001908152602001600020819055508173ffffffffffffffffffffffffffffffffffffffff168373ffffffffffffffffffffffffffffffffffffffff167f8c5be1e5ebec7d5bd14f71427d1e84f3dd0314c0f7b2291e5b200ac8c7c3b925836040518082815260200191505060405180910390a3505050565b600073ffffffffffffffffffffffffffffffffffffffff168273ffffffffffffffffffffffffffffffffffffffff161415610d60576040517f08c379a000000000000000000000000000000000000000000000000000000000815260040180806020018281038252601f8152602001807f45524332303a206d696e7420746f20746865207a65726f20616464726573730081525060200191505060405180910390fd5b610d6c6000838361128d565b610d818160025461120590919063ffffffff16565b600281905550610dd8816000808573ffffffffffffffffffffffffffffffffffffffff1673ffffffffffffffffffffffffffffffffffffffff1681526020019081526020016000205461120590919063ffffffff16565b6000808473ffffffffffffffffffffffffffffffffffffffff1673ffffffffffffffffffffffffffffffffffffffff168152602001908152602001600020819055508173ffffffffffffffffffffffffffffffffffffffff16600073ffffffffffffffffffffffffffffffffffffffff167fddf252ad1be2c89b69c2b068fc378daa952ba7f163c4a11628f55a4df523b3ef836040518082815260200191505060405180910390a35050565b600073ffffffffffffffffffffffffffffffffffffffff168373ffffffffffffffffffffffffffffffffffffffff161415610f0a576040517f08c379a00000000000000000000000000000000000000000000000000000000081526004018080602001828103825260258152602001806113266025913960400191505060405180910390fd5b600073ffffffffffffffffffffffffffffffffffffffff168273ffffffffffffffffffffffffffffffffffffffff161415610f90576040517f08c379a00000000000000000000000000000000000000000000000000000000081526004018080602001828103825260238152602001806112936023913960400191505060405180910390fd5b610f9b83838361128d565b611006816040518060600160405280602681526020016112d8602691396000808773ffffffffffffffffffffffffffffffffffffffff1673ffffffffffffffffffffffffffffffffffffffff168152602001908152602001600020546111459092919063ffffffff16565b6000808573ffffffffffffffffffffffffffffffffffffffff1673ffffffffffffffffffffffffffffffffffffffff16815260200190815260200160002081905550611099816000808573ffffffffffffffffffffffffffffffffffffffff1673ffffffffffffffffffffffffffffffffffffffff1681526020019081526020016000205461120590919063ffffffff16565b6000808473ffffffffffffffffffffffffffffffffffffffff1673ffffffffffffffffffffffffffffffffffffffff168152602001908152602001600020819055508173ffffffffffffffffffffffffffffffffffffffff168373ffffffffffffffffffffffffffffffffffffffff167fddf252ad1be2c89b69c2b068fc378daa952ba7f163c4a11628f55a4df523b3ef836040518082815260200191505060405180910390a3505050565b60008383111582906111f2576040517f08c379a00000000000000000000000000000000000000000000000000000000081526004018080602001828103825283818151815260200191508051906020019080838360005b838110156111b757808201518184015260208101905061119c565b50505050905090810190601f1680156111e45780820380516001836020036101000a031916815260200191505b509250505060405180910390fd5b5060008385039050809150509392505050565b600080828401905083811015611283576040517f08c379a000000000000000000000000000000000000000000000000000000000815260040180806020018281038252601b8152602001807f536166654d6174683a206164646974696f6e206f766572666c6f77000000000081525060200191505060405180910390fd5b8091505092915050565b50505056fe45524332303a207472616e7366657220746f20746865207a65726f206164647265737345524332303a20617070726f766520746f20746865207a65726f206164647265737345524332303a207472616e7366657220616d6f756e7420657863656564732062616c616e636545524332303a207472616e7366657220616d6f756e74206578636565647320616c6c6f77616e636545524332303a207472616e736665722066726f6d20746865207a65726f206164647265737345524332303a20617070726f76652066726f6d20746865207a65726f206164647265737345524332303a2064656372656173656420616c6c6f77616e63652062656c6f77207a65726fa2646970667358221220a06bc2d56e6f12f29cc5263168f4c953dc7339c4cca3079981619eb7b30ebf4f64736f6c634300060c003354686520676f7665726e6d656e7420616464726573732073686f756c64206e6f7420626520736574546f6b656e20666f722074686973206c6f636174696f6e20616c72656164792065786973744f6e6c7920676f7665726e6d656e742063616e20697373756520616e20617574686f7269736174696f6e546f6b656e20666f722074686973206c6f636174696f6e20646f6573206e6f742065786973744f6e6c792074686520676f7665726e6d656e7420616e6420617574686f72697a696e67206f7267616e697a6174696f6e2063616e206d696e7420746f6b656e73a2646970667358221220adfff3f0fa857a5b12363effc734e0f373d2cbf40642c8a15dfdc05acccccdd264736f6c634300060c0033",
  "immutableReferences": {},
  "source": "pragma solidity ^0.6.0;\n\nimport \"./contracts/token/ERC20/ERC20AddressTracker.sol\";\n\ncontract AddressTracker {\n  \n  mapping(bytes32 => ERC20AddressTracker) locationToToken; \n  mapping(ERC20AddressTracker => address) tokenToOwner;\n  mapping(ERC20AddressTracker => bytes32) tokenToCompleteHash;\n  mapping(bytes32 => bool) locationExist;\n  mapping(address => ERC20AddressTracker[]) tokenOwner;\n  mapping(address => bool) isAuthorized;\n  address[] authorities;\n  address govtAddress;\n  bool addressSet;\n\n  constructor() public {\n    addressSet = false;\n  }\n\n  function setGovtAddress(address _govtAddress) public {\n    require(addressSet == false, \"The government address should not be set\");\n    govtAddress = _govtAddress;\n    addressSet = true;\n    isAuthorized[govtAddress] = true;\n    authorities.push(govtAddress);\n  }\n  \n  function getGovtAddress() public view returns(address) {\n    return govtAddress;\n  }\n\n  /*\n  function setLocHash(string memory long, string memory lat, string memory a1, string memory a2) public pure returns(bytes32) {\n      return keccak256(abi.encodePacked(long, lat, a1, a2));\n  }\n  \n  function setLocHash1(string memory long, string memory lat, string memory a1, string memory a2) public pure returns(bytes32) {\n      return keccak256(abi.encodePacked(long, lat, a1, a2));\n  }\n  \n  function setcompHash(string memory long, string memory lat, string memory a1, string memory a2, string memory res, string memory nonce) public pure returns(bytes32) {\n      return keccak256(abi.encodePacked(long, lat, a1, a2, res, nonce));\n  }  \n  \n  function getToken(bytes32 locationHash) public view returns(ERC20AddressTracker){\n      return locationToToken[locationHash];\n  }\n  */\n  function getBalance(address person) public view returns(uint256){\n      ERC20AddressTracker token = tokenOwner[person][0];\n      return token.balanceOf(person);\n  }\n  \n  function issueAuthorisation(address _authority) public {\n    require(msg.sender == govtAddress, \"Only government can issue an authorisation\");\n    isAuthorized[_authority] = true;\n    authorities.push(_authority);\n  }\n\n  function getAuthority() public view returns(address[] memory) {\n    return authorities;\n  }\n\n  function mintToken(bytes32 locationHash) public {\n    // locationHash -> hash([long, lat, add1, add2])\n    // will get token address\n    require(locationExist[locationHash] == false, \"Token for this location already exist\");\n    require(isAuthorized[msg.sender] == true, \"Only the government and authorizing organization can mint tokens\");\n    ERC20AddressTracker tkn = new ERC20AddressTracker(\"x\", \"x\", locationHash);\n    tkn.mintNeeded(msg.sender, 1);\n    locationToToken[locationHash] = tkn;\n    locationExist[locationHash] = true;\n    tokenToOwner[tkn] = msg.sender;\n    tokenOwner[msg.sender].push(tkn);\n  }\n\n  function remove(uint index, ERC20AddressTracker[] memory array) private returns(ERC20AddressTracker[] memory) {\n    for (uint i = index; i<array.length-1; i++){\n        array[i] = array[i+1];\n    }\n    delete array[array.length-1];\n    // array.length--;\n    return array;\n    }\n  \n  function allot(bytes32 locationHash, bytes32 completeHash, address owner) public {\n    // locationHash -> hash([long, lat, add1, add2])\n    // completeHash -> hash([long, lat, add1, add2, resident hash, nonce])\n    // owner -> first resident\n    require(locationExist[locationHash] == true, \"Token for this location does not exist\");\n    require(isAuthorized[msg.sender] == true, \"Only the government and authorizing organization can mint tokens\");\n    ERC20AddressTracker token = locationToToken[locationHash];\n    require(isAuthorized[tokenToOwner[token]] == true, \"Token alloted already\");\n    tokenToCompleteHash[token] = completeHash;\n    tokenToOwner[token] = owner;\n    token.transferNeeded(msg.sender, owner, 1);\n    // tokenOwner[govtAddress] = 0;\n    uint idx1 = 0;\n    uint idx2 = 0;\n    uint flag = 0;\n    for(idx1 = 0; idx1 < authorities.length; idx1++){\n      // address IA = authorities[idx1];\n      for(idx2 = 0; idx2 < tokenOwner[authorities[idx1]].length; idx2++){\n        if(keccak256(abi.encodePacked(tokenOwner[authorities[idx1]][idx2])) == keccak256(abi.encodePacked(token))) {\n          flag = 1;\n          break;\n        }\n      }\n      if(flag == 1){\n        break;\n      }\n    }\n\n    tokenOwner[owner].push(token);\n    tokenOwner[authorities[idx1]] = remove(idx2, tokenOwner[authorities[idx1]]);\n    // delete tokenOwner[govtAddress][idx];\n  }\n  \n  function transfer(bytes32 locationHash, bytes32 oldHash, bytes32 newHash, address oldOwner) public {\n    // locationHash -> hash([long, lat, add1, add2])\n    // oldHash -> hash([long, lat, add1, add2, resident hash, nonce])\n    // newHash -> hash(new [long, lat, add1, add2, resident hash, nonce])\n    \n    // newOwner -> first (new) resident\n    \n    require(locationExist[locationHash] == true, \"Token for this location does not exist\");\n    \n    ERC20AddressTracker token = locationToToken[locationHash];\n\n    // require(tokenToOwner[token] == msg.sender, \"you are not the owner\");\n    require(tokenToCompleteHash[token] == oldHash, \"invalid transfer\");\n\n    tokenToCompleteHash[token] = newHash;\n    tokenToOwner[token] = msg.sender;\n    token.transferNeeded(oldOwner, msg.sender, 1);\n    uint idx = 0;\n    for (idx = 0; idx < tokenOwner[oldOwner].length; idx++) {\n      if(keccak256(abi.encodePacked(tokenOwner[oldOwner][idx])) == keccak256(abi.encodePacked(token))) {\n        break;\n      }\n    }\n    tokenOwner[msg.sender].push(token);\n    tokenOwner[oldOwner] = remove(idx, tokenOwner[oldOwner]);\n  }\n}",
  "sourcePath": "/home/manan/Desktop/CollegeStuff/Sem7/Blockchain/Project/addressTracker/contracts/AddressTracker.sol",
  "compiler": {
    "name": "solc",
    "version": "0.6.12+commit.27d51765.Emscripten.clang"
  },
  "schemaVersion": "3.3.2",
  "updatedAt": "2020-11-23T16:11:17.572Z",
  "networkType": "ethereum",
  "devdoc": {
    "kind": "dev",
    "methods": {},
    "version": 1
  },
  "userdoc": {
    "kind": "user",
    "methods": {},
    "version": 1
  }
}