{
  "contractName": "Address",
  "abi": [
    {
      "inputs": [],
      "stateMutability": "nonpayable",
      "type": "constructor"
    },
    {
      "inputs": [
        {
          "internalType": "address",
          "name": "_govtAddress",
          "type": "address"
        }
      ],
      "name": "setGovtAddress",
      "outputs": [],
      "stateMutability": "nonpayable",
      "type": "function"
    },
    {
      "inputs": [
        {
          "internalType": "bytes32",
          "name": "locationHash",
          "type": "bytes32"
        }
      ],
      "name": "mintToken",
      "outputs": [],
      "stateMutability": "nonpayable",
      "type": "function"
    },
    {
      "inputs": [
        {
          "internalType": "bytes32",
          "name": "locationHash",
          "type": "bytes32"
        },
        {
          "internalType": "bytes32",
          "name": "completeHash",
          "type": "bytes32"
        },
        {
          "internalType": "address",
          "name": "owner",
          "type": "address"
        }
      ],
      "name": "allot",
      "outputs": [],
      "stateMutability": "nonpayable",
      "type": "function"
    },
    {
      "inputs": [
        {
          "internalType": "bytes32",
          "name": "locationHash",
          "type": "bytes32"
        },
        {
          "internalType": "bytes32",
          "name": "oldHash",
          "type": "bytes32"
        },
        {
          "internalType": "bytes32",
          "name": "newHash",
          "type": "bytes32"
        },
        {
          "internalType": "address",
          "name": "newOwner",
          "type": "address"
        }
      ],
      "name": "transfer",
      "outputs": [],
      "stateMutability": "nonpayable",
      "type": "function"
    }
  ],
  "bytecode": "0x608060405234801561001057600080fd5b506000600360146101000a81548160ff0219169083151502179055506108488061003b6000396000f3fe608060405234801561001057600080fd5b506004361061004c5760003560e01c80633089ad7114610051578063790d5750146100a9578063a521ad7c146100ed578063fbd0dce51461011b575b600080fd5b6100a76004803603606081101561006757600080fd5b810190808035906020019092919080359060200190929190803573ffffffffffffffffffffffffffffffffffffffff16906020019092919050505061017d565b005b6100eb600480360360208110156100bf57600080fd5b81019080803573ffffffffffffffffffffffffffffffffffffffff169060200190929190505050610322565b005b6101196004803603602081101561010357600080fd5b81019080803590602001909291905050506103ed565b005b61017b6004803603608081101561013157600080fd5b81019080803590602001909291908035906020019092919080359060200190929190803573ffffffffffffffffffffffffffffffffffffffff1690602001909291905050506104ea565b005b600360009054906101000a900473ffffffffffffffffffffffffffffffffffffffff1673ffffffffffffffffffffffffffffffffffffffff163373ffffffffffffffffffffffffffffffffffffffff1614610223576040517f08c379a00000000000000000000000000000000000000000000000000000000081526004018080602001828103825260298152602001806107ea6029913960400191505060405180910390fd5b600080600085815260200190815260200160002060009054906101000a900473ffffffffffffffffffffffffffffffffffffffff16905082600260008373ffffffffffffffffffffffffffffffffffffffff1673ffffffffffffffffffffffffffffffffffffffff1681526020019081526020016000208190555081600160008373ffffffffffffffffffffffffffffffffffffffff1673ffffffffffffffffffffffffffffffffffffffff16815260200190815260200160002060006101000a81548173ffffffffffffffffffffffffffffffffffffffff021916908373ffffffffffffffffffffffffffffffffffffffff16021790555050505050565b60001515600360149054906101000a900460ff1615151461038e576040517f08c379a00000000000000000000000000000000000000000000000000000000081526004018080602001828103825260288152602001806107c26028913960400191505060405180910390fd5b80600360006101000a81548173ffffffffffffffffffffffffffffffffffffffff021916908373ffffffffffffffffffffffffffffffffffffffff1602179055506001600360146101000a81548160ff02191690831515021790555050565b600360009054906101000a900473ffffffffffffffffffffffffffffffffffffffff1673ffffffffffffffffffffffffffffffffffffffff163373ffffffffffffffffffffffffffffffffffffffff1614610493576040517f08c379a000000000000000000000000000000000000000000000000000000000815260040180806020018281038252602381526020018061079f6023913960400191505060405180910390fd5b60008060008084815260200190815260200160002060006101000a81548173ffffffffffffffffffffffffffffffffffffffff021916908373ffffffffffffffffffffffffffffffffffffffff1602179055505050565b600080600086815260200190815260200160002060009054906101000a900473ffffffffffffffffffffffffffffffffffffffff1690503373ffffffffffffffffffffffffffffffffffffffff16600160008373ffffffffffffffffffffffffffffffffffffffff1673ffffffffffffffffffffffffffffffffffffffff16815260200190815260200160002060009054906101000a900473ffffffffffffffffffffffffffffffffffffffff1673ffffffffffffffffffffffffffffffffffffffff1614610621576040517f08c379a00000000000000000000000000000000000000000000000000000000081526004018080602001828103825260158152602001807f796f7520617265206e6f7420746865206f776e6572000000000000000000000081525060200191505060405180910390fd5b83600260008373ffffffffffffffffffffffffffffffffffffffff1673ffffffffffffffffffffffffffffffffffffffff16815260200190815260200160002054146106d5576040517f08c379a00000000000000000000000000000000000000000000000000000000081526004018080602001828103825260108152602001807f696e76616c6964207472616e736665720000000000000000000000000000000081525060200191505060405180910390fd5b82600260008373ffffffffffffffffffffffffffffffffffffffff1673ffffffffffffffffffffffffffffffffffffffff1681526020019081526020016000208190555081600160008373ffffffffffffffffffffffffffffffffffffffff1673ffffffffffffffffffffffffffffffffffffffff16815260200190815260200160002060006101000a81548173ffffffffffffffffffffffffffffffffffffffff021916908373ffffffffffffffffffffffffffffffffffffffff160217905550505050505056fe4f6e6c792074686520676f7665726e6d656e742063616e206d696e7420746f6b656e7354686520676f7665726e6d656e7420616464726573732073686f756c64206e6f74206265207365744f6e6c792074686520676f7665726e6d656e742063616e20616c6c6f742061206e657720746f6b656ea264697066735822122039f1ef7c275d5611a3f5c29e5b871c38a77d667a91e58ba4b5e3f3920e10cdb664736f6c634300060c0033",
  "immutableReferences": {},
  "source": "pragma solidity ^0.6.0;\n\ncontract Address {\n  \n  mapping(bytes32 => address) locationToToken; \n  mapping(address => address) tokenToOwner;\n  mapping(address => bytes32) tokenToCompleteHash;\n\n  address govtAddress;\n  bool addressSet;\n\n  constructor() public {\n    addressSet = false;\n  }\n\n  function setGovtAddress(address _govtAddress) public {\n    require(addressSet == false, \"The government address should not be set\");\n    govtAddress = _govtAddress;\n    addressSet = true;\n  }\n  \n  function mintToken(bytes32 locationHash) public {\n    // locationHash -> hash([long, lat, add1, add2])\n    // will get token address\n    require(msg.sender == govtAddress, \"Only the government can mint tokens\");\n    address tkn;\n    locationToToken[locationHash] = tkn;\n  }\n  \n  function allot(bytes32 locationHash, bytes32 completeHash, address owner) public {\n    // locationHash -> hash([long, lat, add1, add2])\n    // completeHash -> hash([long, lat, add1, add2, resident hash, nonce])\n    // owner -> first resident\n    require(msg.sender == govtAddress, \"Only the government can allot a new token\");\n    address token = locationToToken[locationHash];\n    tokenToCompleteHash[token] = completeHash;\n    tokenToOwner[token] = owner;\n  }\n  \n  function transfer(bytes32 locationHash, bytes32 oldHash, bytes32 newHash, address newOwner) public {\n    // locationHash -> hash([long, lat, add1, add2])\n    // oldHash -> hash([long, lat, add1, add2, resident hash, nonce])\n    // newHash -> hash(new [long, lat, add1, add2, resident hash, nonce])\n    \n    // newOwner -> first (new) resident\n    address token = locationToToken[locationHash];\n\n    require(tokenToOwner[token] == msg.sender, \"you are not the owner\");\n    require(tokenToCompleteHash[token] == oldHash, \"invalid transfer\");\n\n    tokenToCompleteHash[token] = newHash;\n    tokenToOwner[token] = newOwner;\n  }\n}",
  "sourcePath": "/home/manan/Desktop/CollegeStuff/Sem7/Blockchain/Project/addressTracker/contracts/Address.sol",
  "compiler": {
    "name": "solc",
    "version": "0.6.12+commit.27d51765.Emscripten.clang"
  },
  "schemaVersion": "3.3.2",
  "updatedAt": "2020-11-23T04:03:43.586Z",
  "networkType": "ethereum",
  "devdoc": {
    "kind": "dev",
    "methods": {},
    "version": 1
  },
  "userdoc": {
    "kind": "user",
    "methods": {},
    "version": 1
  }
}