{
  "contractName": "ArraysImpl",
  "abi": [
    {
      "inputs": [
        {
          "internalType": "uint256[]",
          "name": "array",
          "type": "uint256[]"
        }
      ],
      "stateMutability": "nonpayable",
      "type": "constructor"
    },
    {
      "inputs": [
        {
          "internalType": "uint256",
          "name": "element",
          "type": "uint256"
        }
      ],
      "name": "findUpperBound",
      "outputs": [
        {
          "internalType": "uint256",
          "name": "",
          "type": "uint256"
        }
      ],
      "stateMutability": "view",
      "type": "function"
    }
  ],
  "bytecode": "0x608060405234801561001057600080fd5b506040516103183803806103188339818101604052602081101561003357600080fd5b810190808051604051939291908464010000000082111561005357600080fd5b8382019150602082018581111561006957600080fd5b825186602082028301116401000000008211171561008657600080fd5b8083526020830192505050908051906020019060200280838360005b838110156100bd5780820151818401526020810190506100a2565b5050505090500160405250505080600090805190602001906100e09291906100e7565b5050610151565b828054828255906000526020600020908101928215610123579160200282015b82811115610122578251825591602001919060010190610107565b5b5090506101309190610134565b5090565b5b8082111561014d576000816000905550600101610135565b5090565b6101b8806101606000396000f3fe608060405234801561001057600080fd5b506004361061002b5760003560e01c806333e3a58a14610030575b600080fd5b61005c6004803603602081101561004657600080fd5b8101908080359060200190929190505050610072565b6040518082815260200191505060405180910390f35b600061008882600061008f90919063ffffffff16565b9050919050565b600080838054905014156100a6576000905061013a565b600080848054905090505b808210156100fa5760006100c58383610140565b9050848682815481106100d457fe5b906000526020600020015411156100ed578091506100f4565b6001810192505b506100b1565b60008211801561012257508385600184038154811061011557fe5b9060005260206000200154145b1561013457600182039250505061013a565b81925050505b92915050565b6000600280838161014d57fe5b066002858161015857fe5b06018161016157fe5b046002838161016c57fe5b046002858161017757fe5b04010190509291505056fea26469706673582212206ba603c1141db06a3a3c7a7afa1bc0e0e11c8049172684bd368e7b76a75f4b1064736f6c634300060c0033",
  "immutableReferences": {},
  "source": "// SPDX-License-Identifier: MIT\n\npragma solidity >=0.6.0 <0.8.0;\n\nimport \"../utils/Arrays.sol\";\n\ncontract ArraysImpl {\n    using Arrays for uint256[];\n\n    uint256[] private _array;\n\n    constructor (uint256[] memory array) public {\n        _array = array;\n    }\n\n    function findUpperBound(uint256 element) external view returns (uint256) {\n        return _array.findUpperBound(element);\n    }\n}\n",
  "sourcePath": "/home/anchit/IIIT/4-1/dtb/addressTracker/contracts/contracts/mocks/ArraysImpl.sol",
  "compiler": {
    "name": "solc",
    "version": "0.6.12+commit.27d51765.Emscripten.clang"
  },
  "schemaVersion": "3.2.5",
  "updatedAt": "2020-11-23T13:10:23.086Z",
  "devdoc": {
    "kind": "dev",
    "methods": {},
    "version": 1
  },
  "userdoc": {
    "kind": "user",
    "methods": {},
    "version": 1
  }
}