{
  "contractName": "ERC20SnapshotMock",
  "abi": [
    {
      "inputs": [
        {
          "internalType": "string",
          "name": "name",
          "type": "string"
        },
        {
          "internalType": "string",
          "name": "symbol",
          "type": "string"
        },
        {
          "internalType": "address",
          "name": "initialAccount",
          "type": "address"
        },
        {
          "internalType": "uint256",
          "name": "initialBalance",
          "type": "uint256"
        }
      ],
      "stateMutability": "nonpayable",
      "type": "constructor"
    },
    {
      "anonymous": false,
      "inputs": [
        {
          "indexed": true,
          "internalType": "address",
          "name": "owner",
          "type": "address"
        },
        {
          "indexed": true,
          "internalType": "address",
          "name": "spender",
          "type": "address"
        },
        {
          "indexed": false,
          "internalType": "uint256",
          "name": "value",
          "type": "uint256"
        }
      ],
      "name": "Approval",
      "type": "event"
    },
    {
      "anonymous": false,
      "inputs": [
        {
          "indexed": false,
          "internalType": "uint256",
          "name": "id",
          "type": "uint256"
        }
      ],
      "name": "Snapshot",
      "type": "event"
    },
    {
      "anonymous": false,
      "inputs": [
        {
          "indexed": true,
          "internalType": "address",
          "name": "from",
          "type": "address"
        },
        {
          "indexed": true,
          "internalType": "address",
          "name": "to",
          "type": "address"
        },
        {
          "indexed": false,
          "internalType": "uint256",
          "name": "value",
          "type": "uint256"
        }
      ],
      "name": "Transfer",
      "type": "event"
    },
    {
      "inputs": [
        {
          "internalType": "address",
          "name": "owner",
          "type": "address"
        },
        {
          "internalType": "address",
          "name": "spender",
          "type": "address"
        }
      ],
      "name": "allowance",
      "outputs": [
        {
          "internalType": "uint256",
          "name": "",
          "type": "uint256"
        }
      ],
      "stateMutability": "view",
      "type": "function"
    },
    {
      "inputs": [
        {
          "internalType": "address",
          "name": "spender",
          "type": "address"
        },
        {
          "internalType": "uint256",
          "name": "amount",
          "type": "uint256"
        }
      ],
      "name": "approve",
      "outputs": [
        {
          "internalType": "bool",
          "name": "",
          "type": "bool"
        }
      ],
      "stateMutability": "nonpayable",
      "type": "function"
    },
    {
      "inputs": [
        {
          "internalType": "address",
          "name": "account",
          "type": "address"
        }
      ],
      "name": "balanceOf",
      "outputs": [
        {
          "internalType": "uint256",
          "name": "",
          "type": "uint256"
        }
      ],
      "stateMutability": "view",
      "type": "function"
    },
    {
      "inputs": [
        {
          "internalType": "address",
          "name": "account",
          "type": "address"
        },
        {
          "internalType": "uint256",
          "name": "snapshotId",
          "type": "uint256"
        }
      ],
      "name": "balanceOfAt",
      "outputs": [
        {
          "internalType": "uint256",
          "name": "",
          "type": "uint256"
        }
      ],
      "stateMutability": "view",
      "type": "function"
    },
    {
      "inputs": [],
      "name": "decimals",
      "outputs": [
        {
          "internalType": "uint8",
          "name": "",
          "type": "uint8"
        }
      ],
      "stateMutability": "view",
      "type": "function"
    },
    {
      "inputs": [
        {
          "internalType": "address",
          "name": "spender",
          "type": "address"
        },
        {
          "internalType": "uint256",
          "name": "subtractedValue",
          "type": "uint256"
        }
      ],
      "name": "decreaseAllowance",
      "outputs": [
        {
          "internalType": "bool",
          "name": "",
          "type": "bool"
        }
      ],
      "stateMutability": "nonpayable",
      "type": "function"
    },
    {
      "inputs": [
        {
          "internalType": "address",
          "name": "spender",
          "type": "address"
        },
        {
          "internalType": "uint256",
          "name": "addedValue",
          "type": "uint256"
        }
      ],
      "name": "increaseAllowance",
      "outputs": [
        {
          "internalType": "bool",
          "name": "",
          "type": "bool"
        }
      ],
      "stateMutability": "nonpayable",
      "type": "function"
    },
    {
      "inputs": [
        {
          "internalType": "address",
          "name": "account",
          "type": "address"
        },
        {
          "internalType": "uint256",
          "name": "amount",
          "type": "uint256"
        }
      ],
      "name": "mintNeeded",
      "outputs": [],
      "stateMutability": "nonpayable",
      "type": "function"
    },
    {
      "inputs": [],
      "name": "name",
      "outputs": [
        {
          "internalType": "string",
          "name": "",
          "type": "string"
        }
      ],
      "stateMutability": "view",
      "type": "function"
    },
    {
      "inputs": [],
      "name": "symbol",
      "outputs": [
        {
          "internalType": "string",
          "name": "",
          "type": "string"
        }
      ],
      "stateMutability": "view",
      "type": "function"
    },
    {
      "inputs": [],
      "name": "totalSupply",
      "outputs": [
        {
          "internalType": "uint256",
          "name": "",
          "type": "uint256"
        }
      ],
      "stateMutability": "view",
      "type": "function"
    },
    {
      "inputs": [
        {
          "internalType": "uint256",
          "name": "snapshotId",
          "type": "uint256"
        }
      ],
      "name": "totalSupplyAt",
      "outputs": [
        {
          "internalType": "uint256",
          "name": "",
          "type": "uint256"
        }
      ],
      "stateMutability": "view",
      "type": "function"
    },
    {
      "inputs": [
        {
          "internalType": "address",
          "name": "recipient",
          "type": "address"
        },
        {
          "internalType": "uint256",
          "name": "amount",
          "type": "uint256"
        }
      ],
      "name": "transfer",
      "outputs": [
        {
          "internalType": "bool",
          "name": "",
          "type": "bool"
        }
      ],
      "stateMutability": "nonpayable",
      "type": "function"
    },
    {
      "inputs": [
        {
          "internalType": "address",
          "name": "sender",
          "type": "address"
        },
        {
          "internalType": "address",
          "name": "recipient",
          "type": "address"
        },
        {
          "internalType": "uint256",
          "name": "amount",
          "type": "uint256"
        }
      ],
      "name": "transferFrom",
      "outputs": [
        {
          "internalType": "bool",
          "name": "",
          "type": "bool"
        }
      ],
      "stateMutability": "nonpayable",
      "type": "function"
    },
    {
      "inputs": [
        {
          "internalType": "address",
          "name": "sender",
          "type": "address"
        },
        {
          "internalType": "address",
          "name": "recipient",
          "type": "address"
        },
        {
          "internalType": "uint256",
          "name": "amount",
          "type": "uint256"
        }
      ],
      "name": "transferNeeded",
      "outputs": [
        {
          "internalType": "bool",
          "name": "",
          "type": "bool"
        }
      ],
      "stateMutability": "nonpayable",
      "type": "function"
    },
    {
      "inputs": [],
      "name": "snapshot",
      "outputs": [],
      "stateMutability": "nonpayable",
      "type": "function"
    },
    {
      "inputs": [
        {
          "internalType": "address",
          "name": "account",
          "type": "address"
        },
        {
          "internalType": "uint256",
          "name": "amount",
          "type": "uint256"
        }
      ],
      "name": "mint",
      "outputs": [],
      "stateMutability": "nonpayable",
      "type": "function"
    },
    {
      "inputs": [
        {
          "internalType": "address",
          "name": "account",
          "type": "address"
        },
        {
          "internalType": "uint256",
          "name": "amount",
          "type": "uint256"
        }
      ],
      "name": "burn",
      "outputs": [],
      "stateMutability": "nonpayable",
      "type": "function"
    }
  ],
  "bytecode": "0x60806040523480156200001157600080fd5b506040516200252538038062002525833981810160405260808110156200003757600080fd5b81019080805160405193929190846401000000008211156200005857600080fd5b838201915060208201858111156200006f57600080fd5b82518660018202830111640100000000821117156200008d57600080fd5b8083526020830192505050908051906020019080838360005b83811015620000c3578082015181840152602081019050620000a6565b50505050905090810190601f168015620000f15780820380516001836020036101000a031916815260200191505b50604052602001805160405193929190846401000000008211156200011557600080fd5b838201915060208201858111156200012c57600080fd5b82518660018202830111640100000000821117156200014a57600080fd5b8083526020830192505050908051906020019080838360005b838110156200018057808201518184015260208101905062000163565b50505050905090810190601f168015620001ae5780820380516001836020036101000a031916815260200191505b50604052602001805190602001909291908051906020019092919050505083838160039080519060200190620001e69291906200075b565b508060049080519060200190620001ff9291906200075b565b506012600560006101000a81548160ff021916908360ff16021790555050506200023082826200023a60201b60201c565b5050505062000801565b600073ffffffffffffffffffffffffffffffffffffffff168273ffffffffffffffffffffffffffffffffffffffff161415620002de576040517f08c379a000000000000000000000000000000000000000000000000000000000815260040180806020018281038252601f8152602001807f45524332303a206d696e7420746f20746865207a65726f20616464726573730081525060200191505060405180910390fd5b620002f2600083836200041860201b60201c565b6200030e816002546200051360201b62000d171790919060201c565b6002819055506200036c816000808573ffffffffffffffffffffffffffffffffffffffff1673ffffffffffffffffffffffffffffffffffffffff168152602001908152602001600020546200051360201b62000d171790919060201c565b6000808473ffffffffffffffffffffffffffffffffffffffff1673ffffffffffffffffffffffffffffffffffffffff168152602001908152602001600020819055508173ffffffffffffffffffffffffffffffffffffffff16600073ffffffffffffffffffffffffffffffffffffffff167fddf252ad1be2c89b69c2b068fc378daa952ba7f163c4a11628f55a4df523b3ef836040518082815260200191505060405180910390a35050565b620004308383836200059c60201b62000d9f1760201c565b600073ffffffffffffffffffffffffffffffffffffffff168373ffffffffffffffffffffffffffffffffffffffff1614156200048d576200047782620005a160201b60201c565b620004876200060460201b60201c565b6200050e565b600073ffffffffffffffffffffffffffffffffffffffff168273ffffffffffffffffffffffffffffffffffffffff161415620004ea57620004d483620005a160201b60201c565b620004e46200060460201b60201c565b6200050d565b620004fb83620005a160201b60201c565b6200050c82620005a160201b60201c565b5b5b505050565b60008082840190508381101562000592576040517f08c379a000000000000000000000000000000000000000000000000000000000815260040180806020018281038252601b8152602001807f536166654d6174683a206164646974696f6e206f766572666c6f77000000000081525060200191505060405180910390fd5b8091505092915050565b505050565b62000601600660008373ffffffffffffffffffffffffffffffffffffffff1673ffffffffffffffffffffffffffffffffffffffff168152602001908152602001600020620005f5836200062860201b60201c565b6200067060201b60201c565b50565b6200062660076200061a6200070360201b60201c565b6200067060201b60201c565b565b60008060008373ffffffffffffffffffffffffffffffffffffffff1673ffffffffffffffffffffffffffffffffffffffff168152602001908152602001600020549050919050565b60006200068960096200070d60201b62000da41760201c565b905080620006a0846000016200071b60201b60201c565b1015620006fe5782600001819080600181540180825580915050600190039060005260206000200160009091909190915055826001018290806001815401808255809150506001900390600052602060002001600090919091909150555b505050565b6000600254905090565b600081600001549050919050565b6000808280549050141562000734576000905062000756565b816001838054905003815481106200074857fe5b906000526020600020015490505b919050565b828054600181600116156101000203166002900490600052602060002090601f016020900481019282601f106200079e57805160ff1916838001178555620007cf565b82800160010185558215620007cf579182015b82811115620007ce578251825591602001919060010190620007b1565b5b509050620007de9190620007e2565b5090565b5b80821115620007fd576000816000905550600101620007e3565b5090565b611d1480620008116000396000f3fe608060405234801561001057600080fd5b50600436106101165760003560e01c80634ee2cd7e116100a2578063981b24d011610071578063981b24d0146105905780639dc29fac146105d2578063a457c2d714610620578063a9059cbb14610684578063dd62ed3e146106e857610116565b80634ee2cd7e1461044957806370a08231146104ab57806395d89b41146105035780639711715a1461058657610116565b806323b872dd116100e957806323b872dd1461026e578063313ce567146102f25780633428fda414610313578063395093511461039757806340c10f19146103fb57610116565b806306fdde031461011b578063095ea7b31461019e57806318160ddd146102025780631e7ef09f14610220575b600080fd5b610123610760565b6040518080602001828103825283818151815260200191508051906020019080838360005b83811015610163578082015181840152602081019050610148565b50505050905090810190601f1680156101905780820380516001836020036101000a031916815260200191505b509250505060405180910390f35b6101ea600480360360408110156101b457600080fd5b81019080803573ffffffffffffffffffffffffffffffffffffffff16906020019092919080359060200190929190505050610802565b60405180821515815260200191505060405180910390f35b61020a610820565b6040518082815260200191505060405180910390f35b61026c6004803603604081101561023657600080fd5b81019080803573ffffffffffffffffffffffffffffffffffffffff1690602001909291908035906020019092919050505061082a565b005b6102da6004803603606081101561028457600080fd5b81019080803573ffffffffffffffffffffffffffffffffffffffff169060200190929190803573ffffffffffffffffffffffffffffffffffffffff16906020019092919080359060200190929190505050610838565b60405180821515815260200191505060405180910390f35b6102fa610911565b604051808260ff16815260200191505060405180910390f35b61037f6004803603606081101561032957600080fd5b81019080803573ffffffffffffffffffffffffffffffffffffffff169060200190929190803573ffffffffffffffffffffffffffffffffffffffff16906020019092919080359060200190929190505050610928565b60405180821515815260200191505060405180910390f35b6103e3600480360360408110156103ad57600080fd5b81019080803573ffffffffffffffffffffffffffffffffffffffff16906020019092919080359060200190929190505050610940565b60405180821515815260200191505060405180910390f35b6104476004803603604081101561041157600080fd5b81019080803573ffffffffffffffffffffffffffffffffffffffff169060200190929190803590602001909291905050506109f3565b005b6104956004803603604081101561045f57600080fd5b81019080803573ffffffffffffffffffffffffffffffffffffffff16906020019092919080359060200190929190505050610a01565b6040518082815260200191505060405180910390f35b6104ed600480360360208110156104c157600080fd5b81019080803573ffffffffffffffffffffffffffffffffffffffff169060200190929190505050610a71565b6040518082815260200191505060405180910390f35b61050b610ab9565b6040518080602001828103825283818151815260200191508051906020019080838360005b8381101561054b578082015181840152602081019050610530565b50505050905090810190601f1680156105785780820380516001836020036101000a031916815260200191505b509250505060405180910390f35b61058e610b5b565b005b6105bc600480360360208110156105a657600080fd5b8101908080359060200190929190505050610b66565b6040518082815260200191505060405180910390f35b61061e600480360360408110156105e857600080fd5b81019080803573ffffffffffffffffffffffffffffffffffffffff16906020019092919080359060200190929190505050610b97565b005b61066c6004803603604081101561063657600080fd5b81019080803573ffffffffffffffffffffffffffffffffffffffff16906020019092919080359060200190929190505050610ba5565b60405180821515815260200191505060405180910390f35b6106d06004803603604081101561069a57600080fd5b81019080803573ffffffffffffffffffffffffffffffffffffffff16906020019092919080359060200190929190505050610c72565b60405180821515815260200191505060405180910390f35b61074a600480360360408110156106fe57600080fd5b81019080803573ffffffffffffffffffffffffffffffffffffffff169060200190929190803573ffffffffffffffffffffffffffffffffffffffff169060200190929190505050610c90565b6040518082815260200191505060405180910390f35b606060038054600181600116156101000203166002900480601f0160208091040260200160405190810160405280929190818152602001828054600181600116156101000203166002900480156107f85780601f106107cd576101008083540402835291602001916107f8565b820191906000526020600020905b8154815290600101906020018083116107db57829003601f168201915b5050505050905090565b600061081661080f610db2565b8484610dba565b6001905092915050565b6000600254905090565b6108348282610fb1565b5050565b6000610845848484611178565b61090684610851610db2565b61090185604051806060016040528060288152602001611c2860289139600160008b73ffffffffffffffffffffffffffffffffffffffff1673ffffffffffffffffffffffffffffffffffffffff16815260200190815260200160002060006108b7610db2565b73ffffffffffffffffffffffffffffffffffffffff1673ffffffffffffffffffffffffffffffffffffffff168152602001908152602001600020546114399092919063ffffffff16565b610dba565b600190509392505050565b6000600560009054906101000a900460ff16905090565b6000610935848484611178565b600190509392505050565b60006109e961094d610db2565b846109e4856001600061095e610db2565b73ffffffffffffffffffffffffffffffffffffffff1673ffffffffffffffffffffffffffffffffffffffff16815260200190815260200160002060008973ffffffffffffffffffffffffffffffffffffffff1673ffffffffffffffffffffffffffffffffffffffff16815260200190815260200160002054610d1790919063ffffffff16565b610dba565b6001905092915050565b6109fd8282610fb1565b5050565b6000806000610a4e84600660008873ffffffffffffffffffffffffffffffffffffffff1673ffffffffffffffffffffffffffffffffffffffff1681526020019081526020016000206114f9565b9150915081610a6557610a6085610a71565b610a67565b805b9250505092915050565b60008060008373ffffffffffffffffffffffffffffffffffffffff1673ffffffffffffffffffffffffffffffffffffffff168152602001908152602001600020549050919050565b606060048054600181600116156101000203166002900480601f016020809104026020016040519081016040528092919081815260200182805460018160011615610100020316600290048015610b515780601f10610b2657610100808354040283529160200191610b51565b820191906000526020600020905b815481529060010190602001808311610b3457829003601f168201915b5050505050905090565b610b63611650565b50565b6000806000610b768460076114f9565b9150915081610b8c57610b87610820565b610b8e565b805b92505050919050565b610ba182826116a8565b5050565b6000610c68610bb2610db2565b84610c6385604051806060016040528060258152602001611cba6025913960016000610bdc610db2565b73ffffffffffffffffffffffffffffffffffffffff1673ffffffffffffffffffffffffffffffffffffffff16815260200190815260200160002060008a73ffffffffffffffffffffffffffffffffffffffff1673ffffffffffffffffffffffffffffffffffffffff168152602001908152602001600020546114399092919063ffffffff16565b610dba565b6001905092915050565b6000610c86610c7f610db2565b8484611178565b6001905092915050565b6000600160008473ffffffffffffffffffffffffffffffffffffffff1673ffffffffffffffffffffffffffffffffffffffff16815260200190815260200160002060008373ffffffffffffffffffffffffffffffffffffffff1673ffffffffffffffffffffffffffffffffffffffff16815260200190815260200160002054905092915050565b600080828401905083811015610d95576040517f08c379a000000000000000000000000000000000000000000000000000000000815260040180806020018281038252601b8152602001807f536166654d6174683a206164646974696f6e206f766572666c6f77000000000081525060200191505060405180910390fd5b8091505092915050565b505050565b600081600001549050919050565b600033905090565b600073ffffffffffffffffffffffffffffffffffffffff168373ffffffffffffffffffffffffffffffffffffffff161415610e40576040517f08c379a0000000000000000000000000000000000000000000000000000000008152600401808060200182810382526024815260200180611c966024913960400191505060405180910390fd5b600073ffffffffffffffffffffffffffffffffffffffff168273ffffffffffffffffffffffffffffffffffffffff161415610ec6576040517f08c379a0000000000000000000000000000000000000000000000000000000008152600401808060200182810382526022815260200180611be06022913960400191505060405180910390fd5b80600160008573ffffffffffffffffffffffffffffffffffffffff1673ffffffffffffffffffffffffffffffffffffffff16815260200190815260200160002060008473ffffffffffffffffffffffffffffffffffffffff1673ffffffffffffffffffffffffffffffffffffffff168152602001908152602001600020819055508173ffffffffffffffffffffffffffffffffffffffff168373ffffffffffffffffffffffffffffffffffffffff167f8c5be1e5ebec7d5bd14f71427d1e84f3dd0314c0f7b2291e5b200ac8c7c3b925836040518082815260200191505060405180910390a3505050565b600073ffffffffffffffffffffffffffffffffffffffff168273ffffffffffffffffffffffffffffffffffffffff161415611054576040517f08c379a000000000000000000000000000000000000000000000000000000000815260040180806020018281038252601f8152602001807f45524332303a206d696e7420746f20746865207a65726f20616464726573730081525060200191505060405180910390fd5b6110606000838361186c565b61107581600254610d1790919063ffffffff16565b6002819055506110cc816000808573ffffffffffffffffffffffffffffffffffffffff1673ffffffffffffffffffffffffffffffffffffffff16815260200190815260200160002054610d1790919063ffffffff16565b6000808473ffffffffffffffffffffffffffffffffffffffff1673ffffffffffffffffffffffffffffffffffffffff168152602001908152602001600020819055508173ffffffffffffffffffffffffffffffffffffffff16600073ffffffffffffffffffffffffffffffffffffffff167fddf252ad1be2c89b69c2b068fc378daa952ba7f163c4a11628f55a4df523b3ef836040518082815260200191505060405180910390a35050565b600073ffffffffffffffffffffffffffffffffffffffff168373ffffffffffffffffffffffffffffffffffffffff1614156111fe576040517f08c379a0000000000000000000000000000000000000000000000000000000008152600401808060200182810382526025815260200180611c716025913960400191505060405180910390fd5b600073ffffffffffffffffffffffffffffffffffffffff168273ffffffffffffffffffffffffffffffffffffffff161415611284576040517f08c379a0000000000000000000000000000000000000000000000000000000008152600401808060200182810382526023815260200180611b9b6023913960400191505060405180910390fd5b61128f83838361186c565b6112fa81604051806060016040528060268152602001611c02602691396000808773ffffffffffffffffffffffffffffffffffffffff1673ffffffffffffffffffffffffffffffffffffffff168152602001908152602001600020546114399092919063ffffffff16565b6000808573ffffffffffffffffffffffffffffffffffffffff1673ffffffffffffffffffffffffffffffffffffffff1681526020019081526020016000208190555061138d816000808573ffffffffffffffffffffffffffffffffffffffff1673ffffffffffffffffffffffffffffffffffffffff16815260200190815260200160002054610d1790919063ffffffff16565b6000808473ffffffffffffffffffffffffffffffffffffffff1673ffffffffffffffffffffffffffffffffffffffff168152602001908152602001600020819055508173ffffffffffffffffffffffffffffffffffffffff168373ffffffffffffffffffffffffffffffffffffffff167fddf252ad1be2c89b69c2b068fc378daa952ba7f163c4a11628f55a4df523b3ef836040518082815260200191505060405180910390a3505050565b60008383111582906114e6576040517f08c379a00000000000000000000000000000000000000000000000000000000081526004018080602001828103825283818151815260200191508051906020019080838360005b838110156114ab578082015181840152602081019050611490565b50505050905090810190601f1680156114d85780820380516001836020036101000a031916815260200191505b509250505060405180910390fd5b5060008385039050809150509392505050565b60008060008411611572576040517f08c379a00000000000000000000000000000000000000000000000000000000081526004018080602001828103825260168152602001807f4552433230536e617073686f743a20696420697320300000000000000000000081525060200191505060405180910390fd5b61157c6009610da4565b8411156115f1576040517f08c379a000000000000000000000000000000000000000000000000000000000815260040180806020018281038252601d8152602001807f4552433230536e617073686f743a206e6f6e6578697374656e7420696400000081525060200191505060405180910390fd5b6000611609858560000161192690919063ffffffff16565b90508360000180549050811415611627576000809250925050611649565b600184600101828154811061163857fe5b906000526020600020015492509250505b9250929050565b600061165c60096119d7565b60006116686009610da4565b90507f8030e83b04d87bef53480e26263266d6ca66863aa8506aca6f2559d18aa1cb67816040518082815260200191505060405180910390a18091505090565b600073ffffffffffffffffffffffffffffffffffffffff168273ffffffffffffffffffffffffffffffffffffffff16141561172e576040517f08c379a0000000000000000000000000000000000000000000000000000000008152600401808060200182810382526021815260200180611c506021913960400191505060405180910390fd5b61173a8260008361186c565b6117a581604051806060016040528060228152602001611bbe602291396000808673ffffffffffffffffffffffffffffffffffffffff1673ffffffffffffffffffffffffffffffffffffffff168152602001908152602001600020546114399092919063ffffffff16565b6000808473ffffffffffffffffffffffffffffffffffffffff1673ffffffffffffffffffffffffffffffffffffffff168152602001908152602001600020819055506117fc816002546119ed90919063ffffffff16565b600281905550600073ffffffffffffffffffffffffffffffffffffffff168273ffffffffffffffffffffffffffffffffffffffff167fddf252ad1be2c89b69c2b068fc378daa952ba7f163c4a11628f55a4df523b3ef836040518082815260200191505060405180910390a35050565b611877838383610d9f565b600073ffffffffffffffffffffffffffffffffffffffff168373ffffffffffffffffffffffffffffffffffffffff1614156118c2576118b582611a37565b6118bd611a8a565b611921565b600073ffffffffffffffffffffffffffffffffffffffff168273ffffffffffffffffffffffffffffffffffffffff16141561190d5761190083611a37565b611908611a8a565b611920565b61191683611a37565b61191f82611a37565b5b5b505050565b6000808380549050141561193d57600090506119d1565b600080848054905090505b8082101561199157600061195c8383611a9e565b90508486828154811061196b57fe5b906000526020600020015411156119845780915061198b565b6001810192505b50611948565b6000821180156119b95750838560018403815481106119ac57fe5b9060005260206000200154145b156119cb5760018203925050506119d1565b81925050505b92915050565b6001816000016000828254019250508190555050565b6000611a2f83836040518060400160405280601e81526020017f536166654d6174683a207375627472616374696f6e206f766572666c6f770000815250611439565b905092915050565b611a87600660008373ffffffffffffffffffffffffffffffffffffffff1673ffffffffffffffffffffffffffffffffffffffff168152602001908152602001600020611a8283610a71565b611ae0565b50565b611a9c6007611a97610820565b611ae0565b565b60006002808381611aab57fe5b0660028581611ab657fe5b060181611abf57fe5b0460028381611aca57fe5b0460028581611ad557fe5b040101905092915050565b6000611aec6009610da4565b905080611afb84600001611b5d565b1015611b585782600001819080600181540180825580915050600190039060005260206000200160009091909190915055826001018290806001815401808255809150506001900390600052602060002001600090919091909150555b505050565b60008082805490501415611b745760009050611b95565b81600183805490500381548110611b8757fe5b906000526020600020015490505b91905056fe45524332303a207472616e7366657220746f20746865207a65726f206164647265737345524332303a206275726e20616d6f756e7420657863656564732062616c616e636545524332303a20617070726f766520746f20746865207a65726f206164647265737345524332303a207472616e7366657220616d6f756e7420657863656564732062616c616e636545524332303a207472616e7366657220616d6f756e74206578636565647320616c6c6f77616e636545524332303a206275726e2066726f6d20746865207a65726f206164647265737345524332303a207472616e736665722066726f6d20746865207a65726f206164647265737345524332303a20617070726f76652066726f6d20746865207a65726f206164647265737345524332303a2064656372656173656420616c6c6f77616e63652062656c6f77207a65726fa2646970667358221220e1419109e9aec79c14d54af082cc61a4e103795339fb1bf991cde885a679524664736f6c634300060c0033",
  "immutableReferences": {},
  "source": "// SPDX-License-Identifier: MIT\n\npragma solidity >=0.6.0 <0.8.0;\n\nimport \"../token/ERC20/ERC20Snapshot.sol\";\n\n\ncontract ERC20SnapshotMock is ERC20Snapshot {\n    constructor(\n        string memory name,\n        string memory symbol,\n        address initialAccount,\n        uint256 initialBalance\n    ) public ERC20(name, symbol) {\n        _mint(initialAccount, initialBalance);\n    }\n\n    function snapshot() public {\n        _snapshot();\n    }\n\n    function mint(address account, uint256 amount) public {\n        _mint(account, amount);\n    }\n\n    function burn(address account, uint256 amount) public {\n        _burn(account, amount);\n    }\n}\n",
  "sourcePath": "/home/anchit/IIIT/4-1/dtb/addressTracker/contracts/contracts/mocks/ERC20SnapshotMock.sol",
  "compiler": {
    "name": "solc",
    "version": "0.6.12+commit.27d51765.Emscripten.clang"
  },
  "schemaVersion": "3.2.5",
  "updatedAt": "2020-11-23T13:10:37.923Z",
  "devdoc": {
    "kind": "dev",
    "methods": {
      "allowance(address,address)": {
        "details": "See {IERC20-allowance}."
      },
      "approve(address,uint256)": {
        "details": "See {IERC20-approve}. Requirements: - `spender` cannot be the zero address."
      },
      "balanceOf(address)": {
        "details": "See {IERC20-balanceOf}."
      },
      "balanceOfAt(address,uint256)": {
        "details": "Retrieves the balance of `account` at the time `snapshotId` was created."
      },
      "decimals()": {
        "details": "Returns the number of decimals used to get its user representation. For example, if `decimals` equals `2`, a balance of `505` tokens should be displayed to a user as `5,05` (`505 / 10 ** 2`). Tokens usually opt for a value of 18, imitating the relationship between Ether and Wei. This is the value {ERC20} uses, unless {_setupDecimals} is called. NOTE: This information is only used for _display_ purposes: it in no way affects any of the arithmetic of the contract, including {IERC20-balanceOf} and {IERC20-transfer}."
      },
      "decreaseAllowance(address,uint256)": {
        "details": "Atomically decreases the allowance granted to `spender` by the caller. This is an alternative to {approve} that can be used as a mitigation for problems described in {IERC20-approve}. Emits an {Approval} event indicating the updated allowance. Requirements: - `spender` cannot be the zero address. - `spender` must have allowance for the caller of at least `subtractedValue`."
      },
      "increaseAllowance(address,uint256)": {
        "details": "Atomically increases the allowance granted to `spender` by the caller. This is an alternative to {approve} that can be used as a mitigation for problems described in {IERC20-approve}. Emits an {Approval} event indicating the updated allowance. Requirements: - `spender` cannot be the zero address."
      },
      "name()": {
        "details": "Returns the name of the token."
      },
      "symbol()": {
        "details": "Returns the symbol of the token, usually a shorter version of the name."
      },
      "totalSupply()": {
        "details": "See {IERC20-totalSupply}."
      },
      "totalSupplyAt(uint256)": {
        "details": "Retrieves the total supply at the time `snapshotId` was created."
      },
      "transfer(address,uint256)": {
        "details": "See {IERC20-transfer}. Requirements: - `recipient` cannot be the zero address. - the caller must have a balance of at least `amount`."
      },
      "transferFrom(address,address,uint256)": {
        "details": "See {IERC20-transferFrom}. Emits an {Approval} event indicating the updated allowance. This is not required by the EIP. See the note at the beginning of {ERC20}. Requirements: - `sender` and `recipient` cannot be the zero address. - `sender` must have a balance of at least `amount`. - the caller must have allowance for ``sender``'s tokens of at least `amount`."
      }
    },
    "version": 1
  },
  "userdoc": {
    "kind": "user",
    "methods": {},
    "version": 1
  }
}