{
  "contractName": "ERC20ReturnTrueMock",
  "abi": [
    {
      "inputs": [
        {
          "internalType": "address",
          "name": "",
          "type": "address"
        },
        {
          "internalType": "uint256",
          "name": "",
          "type": "uint256"
        }
      ],
      "name": "transfer",
      "outputs": [
        {
          "internalType": "bool",
          "name": "",
          "type": "bool"
        }
      ],
      "stateMutability": "nonpayable",
      "type": "function"
    },
    {
      "inputs": [
        {
          "internalType": "address",
          "name": "",
          "type": "address"
        },
        {
          "internalType": "address",
          "name": "",
          "type": "address"
        },
        {
          "internalType": "uint256",
          "name": "",
          "type": "uint256"
        }
      ],
      "name": "transferFrom",
      "outputs": [
        {
          "internalType": "bool",
          "name": "",
          "type": "bool"
        }
      ],
      "stateMutability": "nonpayable",
      "type": "function"
    },
    {
      "inputs": [
        {
          "internalType": "address",
          "name": "",
          "type": "address"
        },
        {
          "internalType": "uint256",
          "name": "",
          "type": "uint256"
        }
      ],
      "name": "approve",
      "outputs": [
        {
          "internalType": "bool",
          "name": "",
          "type": "bool"
        }
      ],
      "stateMutability": "nonpayable",
      "type": "function"
    },
    {
      "inputs": [
        {
          "internalType": "uint256",
          "name": "allowance_",
          "type": "uint256"
        }
      ],
      "name": "setAllowance",
      "outputs": [],
      "stateMutability": "nonpayable",
      "type": "function"
    },
    {
      "inputs": [
        {
          "internalType": "address",
          "name": "owner",
          "type": "address"
        },
        {
          "internalType": "address",
          "name": "",
          "type": "address"
        }
      ],
      "name": "allowance",
      "outputs": [
        {
          "internalType": "uint256",
          "name": "",
          "type": "uint256"
        }
      ],
      "stateMutability": "view",
      "type": "function"
    }
  ],
  "bytecode": "0x608060405234801561001057600080fd5b5061035c806100206000396000f3fe608060405234801561001057600080fd5b50600436106100575760003560e01c8063095ea7b31461005c57806323b872dd146100c05780633ba93f2614610144578063a9059cbb14610172578063dd62ed3e146101d6575b600080fd5b6100a86004803603604081101561007257600080fd5b81019080803573ffffffffffffffffffffffffffffffffffffffff1690602001909291908035906020019092919050505061024e565b60405180821515815260200191505060405180910390f35b61012c600480360360608110156100d657600080fd5b81019080803573ffffffffffffffffffffffffffffffffffffffff169060200190929190803573ffffffffffffffffffffffffffffffffffffffff16906020019092919080359060200190929190505050610261565b60405180821515815260200191505060405180910390f35b6101706004803603602081101561015a57600080fd5b8101908080359060200190929190505050610275565b005b6101be6004803603604081101561018857600080fd5b81019080803573ffffffffffffffffffffffffffffffffffffffff169060200190929190803590602001909291905050506102c2565b60405180821515815260200191505060405180910390f35b610238600480360360408110156101ec57600080fd5b81019080803573ffffffffffffffffffffffffffffffffffffffff169060200190929190803573ffffffffffffffffffffffffffffffffffffffff1690602001909291905050506102d5565b6040518082815260200191505060405180910390f35b6000806001819055506001905092915050565b600080600181905550600190509392505050565b8060008061028161031e565b73ffffffffffffffffffffffffffffffffffffffff1673ffffffffffffffffffffffffffffffffffffffff1681526020019081526020016000208190555050565b6000806001819055506001905092915050565b60008060008473ffffffffffffffffffffffffffffffffffffffff1673ffffffffffffffffffffffffffffffffffffffff16815260200190815260200160002054905092915050565b60003390509056fea26469706673582212206e16d45c71fb59eba879ec972df1678bf58f162c185115898ffea77d3f5dfe2364736f6c634300060c0033",
  "immutableReferences": {},
  "source": "// SPDX-License-Identifier: MIT\n\npragma solidity >=0.6.0 <0.8.0;\n\nimport \"../GSN/Context.sol\";\nimport \"../token/ERC20/IERC20.sol\";\nimport \"../token/ERC20/SafeERC20.sol\";\n\ncontract ERC20ReturnFalseMock is Context {\n    uint256 private _allowance;\n\n    // IERC20's functions are not pure, but these mock implementations are: to prevent Solidity from issuing warnings,\n    // we write to a dummy state variable.\n    uint256 private _dummy;\n\n    function transfer(address, uint256) public returns (bool) {\n        _dummy = 0;\n        return false;\n    }\n\n    function transferFrom(address, address, uint256) public returns (bool) {\n        _dummy = 0;\n        return false;\n    }\n\n    function approve(address, uint256) public returns (bool) {\n        _dummy = 0;\n        return false;\n    }\n\n    function allowance(address, address) public view returns (uint256) {\n        require(_dummy == 0); // Duummy read from a state variable so that the function is view\n        return 0;\n    }\n}\n\ncontract ERC20ReturnTrueMock is Context {\n    mapping (address => uint256) private _allowances;\n\n    // IERC20's functions are not pure, but these mock implementations are: to prevent Solidity from issuing warnings,\n    // we write to a dummy state variable.\n    uint256 private _dummy;\n\n    function transfer(address, uint256) public returns (bool) {\n        _dummy = 0;\n        return true;\n    }\n\n    function transferFrom(address, address, uint256) public returns (bool) {\n        _dummy = 0;\n        return true;\n    }\n\n    function approve(address, uint256) public returns (bool) {\n        _dummy = 0;\n        return true;\n    }\n\n    function setAllowance(uint256 allowance_) public {\n        _allowances[_msgSender()] = allowance_;\n    }\n\n    function allowance(address owner, address) public view returns (uint256) {\n        return _allowances[owner];\n    }\n}\n\ncontract ERC20NoReturnMock is Context {\n    mapping (address => uint256) private _allowances;\n\n    // IERC20's functions are not pure, but these mock implementations are: to prevent Solidity from issuing warnings,\n    // we write to a dummy state variable.\n    uint256 private _dummy;\n\n    function transfer(address, uint256) public {\n        _dummy = 0;\n    }\n\n    function transferFrom(address, address, uint256) public {\n        _dummy = 0;\n    }\n\n    function approve(address, uint256) public {\n        _dummy = 0;\n    }\n\n    function setAllowance(uint256 allowance_) public {\n        _allowances[_msgSender()] = allowance_;\n    }\n\n    function allowance(address owner, address) public view returns (uint256) {\n        return _allowances[owner];\n    }\n}\n\ncontract SafeERC20Wrapper is Context {\n    using SafeERC20 for IERC20;\n\n    IERC20 private _token;\n\n    constructor (IERC20 token) public {\n        _token = token;\n    }\n\n    function transfer() public {\n        _token.safeTransfer(address(0), 0);\n    }\n\n    function transferFrom() public {\n        _token.safeTransferFrom(address(0), address(0), 0);\n    }\n\n    function approve(uint256 amount) public {\n        _token.safeApprove(address(0), amount);\n    }\n\n    function increaseAllowance(uint256 amount) public {\n        _token.safeIncreaseAllowance(address(0), amount);\n    }\n\n    function decreaseAllowance(uint256 amount) public {\n        _token.safeDecreaseAllowance(address(0), amount);\n    }\n\n    function setAllowance(uint256 allowance_) public {\n        ERC20ReturnTrueMock(address(_token)).setAllowance(allowance_);\n    }\n\n    function allowance() public view returns (uint256) {\n        return _token.allowance(address(0), address(0));\n    }\n}\n",
  "sourcePath": "/home/manan/Desktop/CollegeStuff/Sem7/Blockchain/Project/addressTracker/contracts/contracts/mocks/SafeERC20Helper.sol",
  "compiler": {
    "name": "solc",
    "version": "0.6.12+commit.27d51765.Emscripten.clang"
  },
  "schemaVersion": "3.3.2",
  "updatedAt": "2020-11-23T11:44:55.881Z",
  "devdoc": {
    "kind": "dev",
    "methods": {},
    "version": 1
  },
  "userdoc": {
    "kind": "user",
    "methods": {},
    "version": 1
  }
}