{
  "contractName": "EtherReceiverMock",
  "abi": [
    {
      "stateMutability": "payable",
      "type": "receive"
    },
    {
      "inputs": [
        {
          "internalType": "bool",
          "name": "acceptEther",
          "type": "bool"
        }
      ],
      "name": "setAcceptEther",
      "outputs": [],
      "stateMutability": "nonpayable",
      "type": "function"
    }
  ],
  "bytecode": "0x608060405234801561001057600080fd5b5060cb8061001f6000396000f3fe608060405260043610601f5760003560e01c80634fea120c14604057603b565b36603b5760008054906101000a900460ff16603957600080fd5b005b600080fd5b348015604b57600080fd5b50607760048036036020811015606057600080fd5b810190808035151590602001909291905050506079565b005b806000806101000a81548160ff0219169083151502179055505056fea264697066735822122018ba40f4ae33bb2f55182177eb5ca7fbed6ca6497b566ec2caaee460850a397364736f6c634300060c0033",
  "immutableReferences": {},
  "source": "// SPDX-License-Identifier: MIT\n\npragma solidity >=0.6.0 <0.8.0;\n\ncontract EtherReceiverMock {\n    bool private _acceptEther;\n\n    function setAcceptEther(bool acceptEther) public {\n        _acceptEther = acceptEther;\n    }\n\n    receive () external payable {\n        if (!_acceptEther) {\n            revert();\n        }\n    }\n}\n",
  "sourcePath": "/home/anchit/IIIT/4-1/dtb/addressTracker/contracts/contracts/mocks/EtherReceiverMock.sol",
  "compiler": {
    "name": "solc",
    "version": "0.6.12+commit.27d51765.Emscripten.clang"
  },
  "schemaVersion": "3.2.5",
  "updatedAt": "2020-11-23T16:35:35.975Z",
  "devdoc": {
    "kind": "dev",
    "methods": {},
    "version": 1
  },
  "userdoc": {
    "kind": "user",
    "methods": {},
    "version": 1
  }
}