{
  "contractName": "InitializableMock",
  "abi": [
    {
      "inputs": [],
      "name": "initializerRan",
      "outputs": [
        {
          "internalType": "bool",
          "name": "",
          "type": "bool"
        }
      ],
      "stateMutability": "view",
      "type": "function"
    },
    {
      "inputs": [],
      "name": "x",
      "outputs": [
        {
          "internalType": "uint256",
          "name": "",
          "type": "uint256"
        }
      ],
      "stateMutability": "view",
      "type": "function"
    },
    {
      "inputs": [],
      "name": "initialize",
      "outputs": [],
      "stateMutability": "nonpayable",
      "type": "function"
    },
    {
      "inputs": [],
      "name": "initializeNested",
      "outputs": [],
      "stateMutability": "nonpayable",
      "type": "function"
    },
    {
      "inputs": [
        {
          "internalType": "uint256",
          "name": "_x",
          "type": "uint256"
        }
      ],
      "name": "initializeWithX",
      "outputs": [],
      "stateMutability": "payable",
      "type": "function"
    },
    {
      "inputs": [
        {
          "internalType": "uint256",
          "name": "_x",
          "type": "uint256"
        }
      ],
      "name": "nonInitializable",
      "outputs": [],
      "stateMutability": "payable",
      "type": "function"
    },
    {
      "inputs": [],
      "name": "fail",
      "outputs": [],
      "stateMutability": "pure",
      "type": "function"
    }
  ],
  "bytecode": "0x608060405234801561001057600080fd5b506105a6806100206000396000f3fe60806040526004361061006f5760003560e01c8063a9cc47181161004e578063a9cc4718146100e4578063c3b8ef2a146100fb578063cb3a528d14610128578063e955c9ec1461013f5761006f565b806218eaa8146100745780630c55699c146100a25780638129fc1c146100cd575b600080fd5b6100a06004803603602081101561008a57600080fd5b810190808035906020019092919050505061016d565b005b3480156100ae57600080fd5b506100b7610273565b6040518082815260200191505060405180910390f35b3480156100d957600080fd5b506100e2610279565b005b3480156100f057600080fd5b506100f9610392565b005b34801561010757600080fd5b50610110610408565b60405180821515815260200191505060405180910390f35b34801561013457600080fd5b5061013d61041b565b005b61016b6004803603602081101561015557600080fd5b8101908080359060200190929190505050610521565b005b600060019054906101000a900460ff168061018c575061018b61052b565b5b806101a2575060008054906101000a900460ff16155b6101f7576040517f08c379a000000000000000000000000000000000000000000000000000000000815260040180806020018281038252602e815260200180610543602e913960400191505060405180910390fd5b60008060019054906101000a900460ff161590508015610247576001600060016101000a81548160ff02191690831515021790555060016000806101000a81548160ff0219169083151502179055505b81600181905550801561026f5760008060016101000a81548160ff0219169083151502179055505b5050565b60015481565b600060019054906101000a900460ff1680610298575061029761052b565b5b806102ae575060008054906101000a900460ff16155b610303576040517f08c379a000000000000000000000000000000000000000000000000000000000815260040180806020018281038252602e815260200180610543602e913960400191505060405180910390fd5b60008060019054906101000a900460ff161590508015610353576001600060016101000a81548160ff02191690831515021790555060016000806101000a81548160ff0219169083151502179055505b6001600060026101000a81548160ff021916908315150217905550801561038f5760008060016101000a81548160ff0219169083151502179055505b50565b6000610406576040517f08c379a00000000000000000000000000000000000000000000000000000000081526004018080602001828103825260208152602001807f496e697469616c697a61626c654d6f636b20666f72636564206661696c75726581525060200191505060405180910390fd5b565b600060029054906101000a900460ff1681565b600060019054906101000a900460ff168061043a575061043961052b565b5b80610450575060008054906101000a900460ff16155b6104a5576040517f08c379a000000000000000000000000000000000000000000000000000000000815260040180806020018281038252602e815260200180610543602e913960400191505060405180910390fd5b60008060019054906101000a900460ff1615905080156104f5576001600060016101000a81548160ff02191690831515021790555060016000806101000a81548160ff0219169083151502179055505b6104fd610279565b801561051e5760008060016101000a81548160ff0219169083151502179055505b50565b8060018190555050565b6000803090506000813b905060008114925050509056fe496e697469616c697a61626c653a20636f6e747261637420697320616c726561647920696e697469616c697a6564a2646970667358221220a9e17c6c6a2842d4c12c5570ef261679d95e2f96a117a606e23268d11fe0eb6d64736f6c634300060c0033",
  "immutableReferences": {},
  "source": "// SPDX-License-Identifier: MIT\n\npragma solidity >=0.6.0 <0.8.0;\n\nimport \"../proxy/Initializable.sol\";\n\n/**\n * @title InitializableMock\n * @dev This contract is a mock to test initializable functionality\n */\ncontract InitializableMock is Initializable {\n\n  bool public initializerRan;\n  uint256 public x;\n\n  function initialize() public initializer {\n    initializerRan = true;\n  }\n\n  function initializeNested() public initializer {\n    initialize();\n  }\n\n  function initializeWithX(uint256 _x) public payable initializer {\n    x = _x;\n  }\n\n  function nonInitializable(uint256 _x) public payable {\n    x = _x;\n  }\n\n  function fail() public pure {\n    require(false, \"InitializableMock forced failure\");\n  }\n\n}\n",
  "sourcePath": "/home/manan/Desktop/CollegeStuff/Sem7/Blockchain/Project/addressTracker/contracts/contracts/mocks/InitializableMock.sol",
  "compiler": {
    "name": "solc",
    "version": "0.6.12+commit.27d51765.Emscripten.clang"
  },
  "schemaVersion": "3.3.2",
  "updatedAt": "2020-11-23T15:06:34.098Z",
  "devdoc": {
    "details": "This contract is a mock to test initializable functionality",
    "kind": "dev",
    "methods": {},
    "title": "InitializableMock",
    "version": 1
  },
  "userdoc": {
    "kind": "user",
    "methods": {},
    "version": 1
  }
}