{
  "contractName": "MerkleProofWrapper",
  "abi": [
    {
      "inputs": [
        {
          "internalType": "bytes32[]",
          "name": "proof",
          "type": "bytes32[]"
        },
        {
          "internalType": "bytes32",
          "name": "root",
          "type": "bytes32"
        },
        {
          "internalType": "bytes32",
          "name": "leaf",
          "type": "bytes32"
        }
      ],
      "name": "verify",
      "outputs": [
        {
          "internalType": "bool",
          "name": "",
          "type": "bool"
        }
      ],
      "stateMutability": "pure",
      "type": "function"
    }
  ],
  "bytecode": "0x608060405234801561001057600080fd5b50610213806100206000396000f3fe608060405234801561001057600080fd5b506004361061002b5760003560e01c80635a9a49c714610030575b600080fd5b6100fa6004803603606081101561004657600080fd5b810190808035906020019064010000000081111561006357600080fd5b82018360208201111561007557600080fd5b8035906020019184602083028401116401000000008311171561009757600080fd5b919080806020026020016040519081016040528093929190818152602001838360200280828437600081840152601f19601f8201169050808301925050505050505091929192908035906020019092919080359060200190929190505050610112565b60405180821515815260200191505060405180910390f35b600061011f848484610128565b90509392505050565b60008082905060005b85518110156101cf57600086828151811061014857fe5b6020026020010151905080831161018f57828160405160200180838152602001828152602001925050506040516020818303038152906040528051906020012092506101c1565b808360405160200180838152602001828152602001925050506040516020818303038152906040528051906020012092505b508080600101915050610131565b50838114915050939250505056fea2646970667358221220e6b86fea4c8899da04d356e914e95ae39a469a2651370dec52c6e739ddda4d3564736f6c634300060c0033",
  "immutableReferences": {},
  "source": "// SPDX-License-Identifier: MIT\n\npragma solidity >=0.6.0 <0.8.0;\n\nimport { MerkleProof } from \"../cryptography/MerkleProof.sol\";\n\ncontract MerkleProofWrapper {\n    function verify(bytes32[] memory proof, bytes32 root, bytes32 leaf) public pure returns (bool) {\n        return MerkleProof.verify(proof, root, leaf);\n    }\n}\n",
  "sourcePath": "/home/anchit/IIIT/4-1/dtb/addressTracker/contracts/contracts/mocks/MerkleProofWrapper.sol",
  "compiler": {
    "name": "solc",
    "version": "0.6.12+commit.27d51765.Emscripten.clang"
  },
  "schemaVersion": "3.2.5",
  "updatedAt": "2020-11-23T16:35:35.982Z",
  "devdoc": {
    "kind": "dev",
    "methods": {},
    "version": 1
  },
  "userdoc": {
    "kind": "user",
    "methods": {},
    "version": 1
  }
}