{
  "contractName": "SafeERC20Wrapper",
  "abi": [
    {
      "inputs": [
        {
          "internalType": "contract IERC20",
          "name": "token",
          "type": "address"
        }
      ],
      "stateMutability": "nonpayable",
      "type": "constructor"
    },
    {
      "inputs": [],
      "name": "transfer",
      "outputs": [],
      "stateMutability": "nonpayable",
      "type": "function"
    },
    {
      "inputs": [],
      "name": "transferFrom",
      "outputs": [],
      "stateMutability": "nonpayable",
      "type": "function"
    },
    {
      "inputs": [
        {
          "internalType": "uint256",
          "name": "amount",
          "type": "uint256"
        }
      ],
      "name": "approve",
      "outputs": [],
      "stateMutability": "nonpayable",
      "type": "function"
    },
    {
      "inputs": [
        {
          "internalType": "uint256",
          "name": "amount",
          "type": "uint256"
        }
      ],
      "name": "increaseAllowance",
      "outputs": [],
      "stateMutability": "nonpayable",
      "type": "function"
    },
    {
      "inputs": [
        {
          "internalType": "uint256",
          "name": "amount",
          "type": "uint256"
        }
      ],
      "name": "decreaseAllowance",
      "outputs": [],
      "stateMutability": "nonpayable",
      "type": "function"
    },
    {
      "inputs": [
        {
          "internalType": "uint256",
          "name": "allowance_",
          "type": "uint256"
        }
      ],
      "name": "setAllowance",
      "outputs": [],
      "stateMutability": "nonpayable",
      "type": "function"
    },
    {
      "inputs": [],
      "name": "allowance",
      "outputs": [
        {
          "internalType": "uint256",
          "name": "",
          "type": "uint256"
        }
      ],
      "stateMutability": "view",
      "type": "function"
    }
  ],
  "bytecode": "0x608060405234801561001057600080fd5b506040516110f43803806110f48339818101604052602081101561003357600080fd5b8101908080519060200190929190505050806000806101000a81548173ffffffffffffffffffffffffffffffffffffffff021916908373ffffffffffffffffffffffffffffffffffffffff16021790555050611060806100946000396000f3fe608060405234801561001057600080fd5b506004361061007d5760003560e01c8063811c34d31161005b578063811c34d31461010c5780638a4068dd14610116578063b759f95414610120578063de242ff41461014e5761007d565b806310bad4cf1461008257806311e330b2146100b05780633ba93f26146100de575b600080fd5b6100ae6004803603602081101561009857600080fd5b810190808035906020019092919050505061016c565b005b6100dc600480360360208110156100c657600080fd5b81019080803590602001909291905050506101bb565b005b61010a600480360360208110156100f457600080fd5b810190808035906020019092919050505061020a565b005b610114610298565b005b61011e6102ea565b005b61014c6004803603602081101561013657600080fd5b8101908080359060200190929190505050610338565b005b610156610387565b6040518082815260200191505060405180910390f35b6101b860008260008054906101000a900473ffffffffffffffffffffffffffffffffffffffff1673ffffffffffffffffffffffffffffffffffffffff166104709092919063ffffffff16565b50565b61020760008260008054906101000a900473ffffffffffffffffffffffffffffffffffffffff1673ffffffffffffffffffffffffffffffffffffffff166106039092919063ffffffff16565b50565b60008054906101000a900473ffffffffffffffffffffffffffffffffffffffff1673ffffffffffffffffffffffffffffffffffffffff16633ba93f26826040518263ffffffff1660e01b815260040180828152602001915050600060405180830381600087803b15801561027d57600080fd5b505af1158015610291573d6000803e3d6000fd5b5050505050565b6102e860008060008060009054906101000a900473ffffffffffffffffffffffffffffffffffffffff1673ffffffffffffffffffffffffffffffffffffffff1661077c909392919063ffffffff16565b565b61033660008060008054906101000a900473ffffffffffffffffffffffffffffffffffffffff1673ffffffffffffffffffffffffffffffffffffffff1661083d9092919063ffffffff16565b565b61038460008260008054906101000a900473ffffffffffffffffffffffffffffffffffffffff1673ffffffffffffffffffffffffffffffffffffffff166108df9092919063ffffffff16565b50565b60008060009054906101000a900473ffffffffffffffffffffffffffffffffffffffff1673ffffffffffffffffffffffffffffffffffffffff1663dd62ed3e6000806040518363ffffffff1660e01b8152600401808373ffffffffffffffffffffffffffffffffffffffff1681526020018273ffffffffffffffffffffffffffffffffffffffff1681526020019250505060206040518083038186803b15801561043057600080fd5b505afa158015610444573d6000803e3d6000fd5b505050506040513d602081101561045a57600080fd5b8101908080519060200190929190505050905090565b600061055e82604051806060016040528060298152602001610f7c602991398673ffffffffffffffffffffffffffffffffffffffff1663dd62ed3e30886040518363ffffffff1660e01b8152600401808373ffffffffffffffffffffffffffffffffffffffff1681526020018273ffffffffffffffffffffffffffffffffffffffff1681526020019250505060206040518083038186803b15801561051457600080fd5b505afa158015610528573d6000803e3d6000fd5b505050506040513d602081101561053e57600080fd5b8101908080519060200190929190505050610aa49092919063ffffffff16565b90506105fd8463095ea7b360e01b8584604051602401808373ffffffffffffffffffffffffffffffffffffffff16815260200182815260200192505050604051602081830303815290604052907bffffffffffffffffffffffffffffffffffffffffffffffffffffffff19166020820180517bffffffffffffffffffffffffffffffffffffffffffffffffffffffff8381831617835250505050610b64565b50505050565b60006106d7828573ffffffffffffffffffffffffffffffffffffffff1663dd62ed3e30876040518363ffffffff1660e01b8152600401808373ffffffffffffffffffffffffffffffffffffffff1681526020018273ffffffffffffffffffffffffffffffffffffffff1681526020019250505060206040518083038186803b15801561068e57600080fd5b505afa1580156106a2573d6000803e3d6000fd5b505050506040513d60208110156106b857600080fd5b8101908080519060200190929190505050610c5390919063ffffffff16565b90506107768463095ea7b360e01b8584604051602401808373ffffffffffffffffffffffffffffffffffffffff16815260200182815260200192505050604051602081830303815290604052907bffffffffffffffffffffffffffffffffffffffffffffffffffffffff19166020820180517bffffffffffffffffffffffffffffffffffffffffffffffffffffffff8381831617835250505050610b64565b50505050565b610837846323b872dd60e01b858585604051602401808473ffffffffffffffffffffffffffffffffffffffff1681526020018373ffffffffffffffffffffffffffffffffffffffff1681526020018281526020019350505050604051602081830303815290604052907bffffffffffffffffffffffffffffffffffffffffffffffffffffffff19166020820180517bffffffffffffffffffffffffffffffffffffffffffffffffffffffff8381831617835250505050610b64565b50505050565b6108da8363a9059cbb60e01b8484604051602401808373ffffffffffffffffffffffffffffffffffffffff16815260200182815260200192505050604051602081830303815290604052907bffffffffffffffffffffffffffffffffffffffffffffffffffffffff19166020820180517bffffffffffffffffffffffffffffffffffffffffffffffffffffffff8381831617835250505050610b64565b505050565b60008114806109ad575060008373ffffffffffffffffffffffffffffffffffffffff1663dd62ed3e30856040518363ffffffff1660e01b8152600401808373ffffffffffffffffffffffffffffffffffffffff1681526020018273ffffffffffffffffffffffffffffffffffffffff1681526020019250505060206040518083038186803b15801561097057600080fd5b505afa158015610984573d6000803e3d6000fd5b505050506040513d602081101561099a57600080fd5b8101908080519060200190929190505050145b610a02576040517f08c379a0000000000000000000000000000000000000000000000000000000008152600401808060200182810382526036815260200180610ff56036913960400191505060405180910390fd5b610a9f8363095ea7b360e01b8484604051602401808373ffffffffffffffffffffffffffffffffffffffff16815260200182815260200192505050604051602081830303815290604052907bffffffffffffffffffffffffffffffffffffffffffffffffffffffff19166020820180517bffffffffffffffffffffffffffffffffffffffffffffffffffffffff8381831617835250505050610b64565b505050565b6000838311158290610b51576040517f08c379a00000000000000000000000000000000000000000000000000000000081526004018080602001828103825283818151815260200191508051906020019080838360005b83811015610b16578082015181840152602081019050610afb565b50505050905090810190601f168015610b435780820380516001836020036101000a031916815260200191505b509250505060405180910390fd5b5060008385039050809150509392505050565b6060610bc6826040518060400160405280602081526020017f5361666545524332303a206c6f772d6c6576656c2063616c6c206661696c65648152508573ffffffffffffffffffffffffffffffffffffffff16610cdb9092919063ffffffff16565b9050600081511115610c4e57808060200190516020811015610be757600080fd5b8101908080519060200190929190505050610c4d576040517f08c379a000000000000000000000000000000000000000000000000000000000815260040180806020018281038252602a815260200180610fcb602a913960400191505060405180910390fd5b5b505050565b600080828401905083811015610cd1576040517f08c379a000000000000000000000000000000000000000000000000000000000815260040180806020018281038252601b8152602001807f536166654d6174683a206164646974696f6e206f766572666c6f77000000000081525060200191505060405180910390fd5b8091505092915050565b6060610cea8484600085610cf3565b90509392505050565b606082471015610d4e576040517f08c379a0000000000000000000000000000000000000000000000000000000008152600401808060200182810382526026815260200180610fa56026913960400191505060405180910390fd5b610d5785610e9c565b610dc9576040517f08c379a000000000000000000000000000000000000000000000000000000000815260040180806020018281038252601d8152602001807f416464726573733a2063616c6c20746f206e6f6e2d636f6e747261637400000081525060200191505060405180910390fd5b600060608673ffffffffffffffffffffffffffffffffffffffff1685876040518082805190602001908083835b60208310610e195780518252602082019150602081019050602083039250610df6565b6001836020036101000a03801982511681845116808217855250505050505090500191505060006040518083038185875af1925050503d8060008114610e7b576040519150601f19603f3d011682016040523d82523d6000602084013e610e80565b606091505b5091509150610e90828286610eaf565b92505050949350505050565b600080823b905060008111915050919050565b60608315610ebf57829050610f74565b600083511115610ed25782518084602001fd5b816040517f08c379a00000000000000000000000000000000000000000000000000000000081526004018080602001828103825283818151815260200191508051906020019080838360005b83811015610f39578082015181840152602081019050610f1e565b50505050905090810190601f168015610f665780820380516001836020036101000a031916815260200191505b509250505060405180910390fd5b939250505056fe5361666545524332303a2064656372656173656420616c6c6f77616e63652062656c6f77207a65726f416464726573733a20696e73756666696369656e742062616c616e636520666f722063616c6c5361666545524332303a204552433230206f7065726174696f6e20646964206e6f7420737563636565645361666545524332303a20617070726f76652066726f6d206e6f6e2d7a65726f20746f206e6f6e2d7a65726f20616c6c6f77616e6365a2646970667358221220d9c208fc8e9aaa9fc87e7cbaa324a1d133519cb032692b82da518f156e4ea30d64736f6c634300060c0033",
  "immutableReferences": {},
  "source": "// SPDX-License-Identifier: MIT\n\npragma solidity >=0.6.0 <0.8.0;\n\nimport \"../GSN/Context.sol\";\nimport \"../token/ERC20/IERC20.sol\";\nimport \"../token/ERC20/SafeERC20.sol\";\n\ncontract ERC20ReturnFalseMock is Context {\n    uint256 private _allowance;\n\n    // IERC20's functions are not pure, but these mock implementations are: to prevent Solidity from issuing warnings,\n    // we write to a dummy state variable.\n    uint256 private _dummy;\n\n    function transfer(address, uint256) public returns (bool) {\n        _dummy = 0;\n        return false;\n    }\n\n    function transferFrom(address, address, uint256) public returns (bool) {\n        _dummy = 0;\n        return false;\n    }\n\n    function approve(address, uint256) public returns (bool) {\n        _dummy = 0;\n        return false;\n    }\n\n    function allowance(address, address) public view returns (uint256) {\n        require(_dummy == 0); // Duummy read from a state variable so that the function is view\n        return 0;\n    }\n}\n\ncontract ERC20ReturnTrueMock is Context {\n    mapping (address => uint256) private _allowances;\n\n    // IERC20's functions are not pure, but these mock implementations are: to prevent Solidity from issuing warnings,\n    // we write to a dummy state variable.\n    uint256 private _dummy;\n\n    function transfer(address, uint256) public returns (bool) {\n        _dummy = 0;\n        return true;\n    }\n\n    function transferFrom(address, address, uint256) public returns (bool) {\n        _dummy = 0;\n        return true;\n    }\n\n    function approve(address, uint256) public returns (bool) {\n        _dummy = 0;\n        return true;\n    }\n\n    function setAllowance(uint256 allowance_) public {\n        _allowances[_msgSender()] = allowance_;\n    }\n\n    function allowance(address owner, address) public view returns (uint256) {\n        return _allowances[owner];\n    }\n}\n\ncontract ERC20NoReturnMock is Context {\n    mapping (address => uint256) private _allowances;\n\n    // IERC20's functions are not pure, but these mock implementations are: to prevent Solidity from issuing warnings,\n    // we write to a dummy state variable.\n    uint256 private _dummy;\n\n    function transfer(address, uint256) public {\n        _dummy = 0;\n    }\n\n    function transferFrom(address, address, uint256) public {\n        _dummy = 0;\n    }\n\n    function approve(address, uint256) public {\n        _dummy = 0;\n    }\n\n    function setAllowance(uint256 allowance_) public {\n        _allowances[_msgSender()] = allowance_;\n    }\n\n    function allowance(address owner, address) public view returns (uint256) {\n        return _allowances[owner];\n    }\n}\n\ncontract SafeERC20Wrapper is Context {\n    using SafeERC20 for IERC20;\n\n    IERC20 private _token;\n\n    constructor (IERC20 token) public {\n        _token = token;\n    }\n\n    function transfer() public {\n        _token.safeTransfer(address(0), 0);\n    }\n\n    function transferFrom() public {\n        _token.safeTransferFrom(address(0), address(0), 0);\n    }\n\n    function approve(uint256 amount) public {\n        _token.safeApprove(address(0), amount);\n    }\n\n    function increaseAllowance(uint256 amount) public {\n        _token.safeIncreaseAllowance(address(0), amount);\n    }\n\n    function decreaseAllowance(uint256 amount) public {\n        _token.safeDecreaseAllowance(address(0), amount);\n    }\n\n    function setAllowance(uint256 allowance_) public {\n        ERC20ReturnTrueMock(address(_token)).setAllowance(allowance_);\n    }\n\n    function allowance() public view returns (uint256) {\n        return _token.allowance(address(0), address(0));\n    }\n}\n",
  "sourcePath": "/home/manan/Desktop/CollegeStuff/Sem7/Blockchain/Project/addressTracker/contracts/contracts/mocks/SafeERC20Helper.sol",
  "compiler": {
    "name": "solc",
    "version": "0.6.12+commit.27d51765.Emscripten.clang"
  },
  "schemaVersion": "3.3.2",
  "updatedAt": "2020-11-22T18:18:14.564Z",
  "devdoc": {
    "kind": "dev",
    "methods": {},
    "version": 1
  },
  "userdoc": {
    "kind": "user",
    "methods": {},
    "version": 1
  }
}